:100000000C94EB000C9413010C9413010C94130149
:100010000C9413010C9413010C9413010C94130110
:100020000C9413010C9413010C94A2030C9414046B
:100030000C9413010C9413010C9413010C941301F0
:100040000C9413010C9413010C9413010C941301E0
:100050000C9413010C9413010C9413010C945B0881
:100060000C9413010C9413010C9413010C941301C0
:100070000C9413010C9413010C9413010C941301B0
:100080000C9413010C9413010C9413010C941301A0
:100090000C9413010C9413010C9413010C94130190
:1000A0000C9413010C9413010C941301F802FB023D
:1000B000EA02EE02F4021C031C031C03FF0203030A
:1000C00007030D0311031C031703070605040100B2
:1000D000080A0B0C0D0900000000240027002A006C
:1000E0002D00300000000000250028002B002E000D
:1000F0003100000000002300260029002C002F0002
:1001000004040404040304050202020204030202BC
:10011000020206060606060604040202020404049D
:1001200008020110408040102040804080080204F6
:10013000018040201002011080102040402000006B
:10014000000200090F0000030401000C0000000081
:1001500000000000000000000000000000080B008C
:10016000020202000009040000010202000005244E
:1001700000100105240101010424020605240600E3
:10018000010705810310004009040100020A000074
:10019000000705020240000007058302400000043A
:1001A00003090412010002EF0201404123368000DE
:1001B000010102030141726475696E6F204C4C436A
:1001C0000041726475696E6F204C656F6E61726478
:1001D0006F00880A420C11241FBECFEFDAE0DEBFA9
:1001E000CDBF12E0A0E0B1E0E2E4F9E102C0059089
:1001F0000D92A631B107D9F722E0A6E1B2E001C025
:100200001D92A43CB207E1F710E0CBEED0E004C0B1
:100210002197FE010E94720CC93ED107C9F70E94C6
:10022000A00A0C949F0C0C94000020918C022111C8
:1002300003C08FEF9FEF08955FB7F89422E02093FB
:10024000E9002091F20030E01216130614F421E0C8
:1002500030E0422FFC0184E6415038F0289880932A
:100260008B029091F1009193F7CF2115310521F088
:100270008091F200882319F05FBFC90108958BE6D1
:100280008093E800F9CF2FB7F89483E08093E900DA
:100290009091E800892F807295FF04C09091F20040
:1002A00080E4891B2FBF08958091830281110DC0C6
:1002B00082E080937F0284E0809380021092820229
:1002C0001092810281E0809383028FE792E008958B
:1002D000409171025091720220916F023091700230
:1002E00042175307B4F49091E8009570E1F39091B0
:1002F000E80092FD19C08093F10080917102909105
:10030000720201968F739927892B19F48EEF8093CF
:10031000E8008091710290917202019690937202AE
:100320008093710281E0089580E00895DF92EF925A
:10033000FF920F931F93CF93DF93D82EF92EE42EC5
:10034000062F10E0C8010196880F0E94680183E023
:100350000E946801CD2DDF2D0C0F1D1FC017D10786
:1003600089F0E7FE03C0FE01849101C088810E94EC
:100370006801F82E80E00E9468018F21219681118A
:10038000EDCF01C081E0DF91CF911F910F91FF90E0
:10039000EF90DF900895DF92EF92FF920F931F93FB
:1003A000CF93DF93D82E8A017B01E40EF51EEB017B
:1003B000CE15DF0571F0D7FE03C0FE01849101C0A8
:1003C00088810E94680121968111F2CF8FEF9FEF03
:1003D00001C0C801DF91CF911F910F91FF90EF9065
:1003E000DF9008950F931F93CF93DF931F92CDB7A4
:1003F000DEB782E0898342E450E06DE571E080E899
:100400000E94CB010E945401DC0112960D911C91B7
:1004100013970115110589F0D801ED91FC91028027
:10042000F381E02DBE016F5F7F4FC801099597FDF5
:1004300004C0F80100851185ECCF89810F90DF9110
:10044000CF911F910F910895615030F02091F100EC
:10045000FC0120830196F8CF289884E680938B02D4
:100460000895CF92DF92EF92FF920F931F93CF9355
:10047000DF936C017A018B01C0E0D0E0CE15DF057F
:1004800081F0D8016D918D01D601ED91FC91019023
:10049000F081E02DC6010995892B11F02196EECF50
:1004A0007E01C701DF91CF911F910F91FF90EF90D7
:1004B000DF90CF900895CF93DF931F92CDB7DEB733
:1004C0006983DC01ED91FC910280F381E02D41E034
:1004D00050E0BE016F5F7F4F09950F90DF91CF9184
:1004E000089583E08093E9008091F200882319F059
:1004F0008AE38093E80008950E94430190E0089504
:10050000CF93DF931F92CDB7DEB7FC01848595852D
:1005100097FD05C02FEF3FEF358724870BC0CE0135
:1005200001960E941501019719F4898190E002C09B
:100530008FEF9FEF0F90DF91CF9108950F931F934F
:10054000CF93DF931F92CDB7DEB78C01FC0184857A
:10055000958597FF0EC0CE0101960E941501019767
:1005600019F4898190E002C08FEF9FEFF801958721
:100570008487F801848595850F90DF91CF911F9135
:100580000F910895FC018485958597FD0BC09FB759
:10059000F89482E08093E9008091F2009FBF90E0A0
:1005A000019608959FB7F89482E08093E9008091C6
:1005B000F2009FBF90E00895089580E090E00895D4
:1005C00090E0FC013197EF30F105B0F5EA5AFF4FAA
:1005D0000C94720C809180008F7703C08091800012
:1005E0008F7D80938000089580918000877FF9CF70
:1005F00084B58F7702C084B58F7D84BD08958091C6
:1006000090008F7707C0809190008F7D03C080910C
:100610009000877F8093900008958091C0008F772D
:1006200003C08091C0008F7D8093C00008958091A9
:10063000C200877F8093C20008953FB7F8948091ED
:100640006B0290916C02A0916D02B0916E0226B582
:10065000A89B05C02F3F19F00196A11DB11D3FBFFA
:10066000BA2FA92F982F8827820F911DA11DB11D88
:10067000BC01CD0142E0660F771F881F991F4A9584
:10068000D1F708956115710579F0FB010190002003
:10069000E9F73197AF01461B570BDC01ED91FC9157
:1006A0000280F381E02D099480E090E008958F921C
:1006B0009F92AF92BF92EF92FF920F931F93CF93AF
:1006C000DF93CDB7DEB7A1970FB6F894DEBF0FBEAC
:1006D000CDBF7C01FA01CB0119A2223008F42AE037
:1006E0008E010F5D1F4F822E912CA12CB12CBF01CA
:1006F000A50194010E94780CF901CA010150110969
:100700006A3014F4605D01C0695CD8016C93232BDE
:10071000242B252B61F7B801C7010E944203A19643
:100720000FB6F894DEBF0FBECDBFDF91CF911F9102
:100730000F91FF90EF90BF90AF909F908F90089592
:100740000E949A0C1F920F920FB60F9211248F9352
:100750009F938091E1009091E100937F9093E1005D
:1007600083FF0FC01092E90091E09093EB0010928C
:10077000EC0092E39093ED0010928C0298E090933D
:10078000F00082FF20C093E09093E9009091F20086
:10079000992319F09AE39093E800909174029923B9
:1007A00039F090917402915090937402992389F1D9
:1007B00090918B02992339F090918B0291509093F4
:1007C0008B02992341F184FF10C08091E2008E7E5C
:1007D00081608093E2008091E1008F7E8093E10050
:1007E000809175028E7E806111C080FF16C080915D
:1007F000E2008E7E80618093E2008091E1008E7E37
:100800008093E100809175028E7E816080937502F5
:1008100004C05D9ACDCF289AD6CF9F918F910F902B
:100820000FBE0F901F9018951F920F920FB60F9248
:100830001124CF92DF92EF92FF920F931F932F9389
:100840003F934F935F936F937F938F939F93AF9358
:10085000BF93EF93FF93CF93DF93CDB7DEB76C9742
:10086000DEBFCDBF1092E9008091E80083FFFBC19D
:1008700068E0CE0145960E94240282EF8093E80052
:100880008D8987FF05C09091E80090FFFCCF03C0E1
:100890009EEF9093E800982F907609F0C6C09E894D
:1008A0004F89588D2F89F88C91110CC0803829F40C
:1008B000809176028093F10002C01092F1001092B4
:1008C000F10045C1913051F4811141C141305105D0
:1008D00009F03DC1809176028D7F0BC0933061F4A9
:1008E000811135C14130510509F031C18091760245
:1008F0008260809376022BC1953049F48091E800A4
:1009000080FFFCCF822F80688093E30020C1963067
:1009100009F05EC00B8D1C8D22E01092E900109250
:10092000720210927102F21232C010927002109292
:100930006F020E94F20199E0BE016F5F7F4FDB0101
:10094000E92F1D92EA95E9F79983FA8291E09E8357
:1009500090EA98879AEF99872091710230917202FC
:10096000275F3F4F3C832B838D831092E9001092C9
:100970007202109271021093700200936F0249E0AC
:1009800050E080E00E94CB010E94F201E0C0109391
:10099000700200936F020E945401DC0112960D91C7
:1009A0001C9113970115110509F4BBC0D801ED91F5
:1009B000FC910480F581E02DBE016B5E7F4FC80184
:1009C0000995009709F0C7C0F80100851185EACFA5
:1009D000973009F445C1983021F481E08093F1000B
:1009E000B6C0993009F0B3C0837009F039C1EFE1A6
:1009F000F1E081E031E096E32081211109C08EE72A
:100A00008093EA001092EA008F8980938C029FC045
:100A10008093E9003093EB0021912093EC009093B8
:100A2000ED008F5F873041F7EACF8B8D9C8D109260
:100A3000E9001092720210927102909370028093FA
:100A40006F02898D811153C08E899D89913A49F435
:100A5000813209F005C147E050E064E071E080E0D8
:100A6000BBC0913209F0FCC0833269F48F89988D44
:100A7000A0E0B0E08093000190930101A0930201F7
:100A8000B093030164C0803269F48091E80082FF72
:100A9000FCCF67E084E091E00E9424028BEF80931A
:100AA000E80055C0823209F052C08F8980930B0153
:100AB000EEEFFFE7859194918B3F9C4D19F0E0E0BC
:100AC000F8E002C0EEEFFAE0809104019091050198
:100AD000A0910601B0910701803B9440A105B105AA
:100AE00009F09EC080910B0180FF79C099C00E94DF
:100AF0005401FC01028113810115110509F4B0C0F4
:100B0000D801ED91FC910190F081E02DBE016B5E6A
:100B10007F4FC801099581111AC0F8010085118520
:100B2000EBCFF1E0FF1609F44EC0F3E0FF1298C0DE
:100B30008F89882309F44AC0823089F440E860E153
:100B400081EC91E00E949601882309F489C08EEF20
:100B50008093E80088C018161906CCF381C0813054
:100B600029F440E86BE085EB91E0ECCF833009F0AD
:100B700077C00E945401DC011296ED90FC9013970F
:100B80008E010F5F1F4F6801E114F10479F0D70166
:100B9000ED91FC910680F781E02DB801C701099520
:100BA000080F111DF701E084F184EECFD8011C92EB
:100BB000F60101900020E9F73197BF016C197D091A
:100BC00040E0C601BFCF63EA71E002C06FE971E0A7
:100BD000FB01449150E080E80E94CB01B8CFEE3F8A
:100BE0002AE0F20751F0808191818737A7E79A07C1
:100BF00021F09093FF0A8093FE0A87E797E791839D
:100C0000808380916000809373029BE088E10FB63F
:100C1000F894A895809360000FBE9093600097CFE2
:100C2000808191818737974709F091CFA89580916E
:100C300060008861809360008091730280936000FF
:100C4000EE3FBAE0FB0739F08091FE0A9091FF0A6F
:100C5000918380837CCF1092FF0A1092FE0A77CF97
:100C600081E28093EB006C960FB6F894DEBF0FBE66
:100C7000CDBFDF91CF91FF91EF91BF91AF919F9148
:100C80008F917F916F915F914F913F912F911F9124
:100C90000F91FF90EF90DF90CF900F900FBE0F90CD
:100CA0001F9018950F931F93CF93DF93EC010E9431
:100CB00042038C0167E371E0CE010E944203800F82
:100CC000911FDF91CF911F910F9108959A01452BAC
:100CD00039F4DC01ED91FC910190F081E02D099453
:100CE000AB0160E070E00C9457030F931F93CF9318
:100CF000DF93EC010E9466068C0167E371E0CE0190
:100D00000E944203800F911FDF91CF911F910F919D
:100D10000895CF92DF92EF92FF920F931F93CF939C
:100D2000DF934115510579F4DC01ED91FC910190BF
:100D3000F081E02DDF91CF911F910F91FF90EF9007
:100D4000DF90CF9009946B01770FEE08FF084A30CF
:100D5000510519F5F7FE1FC0EC01E881F9810190FA
:100D6000F081E02D6DE209958C0144275527BA01E9
:100D70004C195D096E097F092AE0CE010E945703D4
:100D8000800F911FDF91CF911F910F91FF90EF90F6
:100D9000DF90CF9008952AE001C0242FB701A6016B
:100DA000DF91CF911F910F91FF90EF90DF90CF9047
:100DB0000C9457030C944203CF93DF93282F30E019
:100DC000F901E25CFE4F8491F901E15EFE4FD4919E
:100DD000F901E050FF4FC491CC2391F081110E94A2
:100DE000E002EC2FF0E0EE0FFF1FEE50FF4FA59159
:100DF000B491EC91ED2381E090E021F480E002C019
:100E000080E090E0DF91CF9108951F93CF93DF931F
:100E1000282F30E0F901E25CFE4F8491F901E15E98
:100E2000FE4FD491F901E050FF4FC491CC23C1F0A3
:100E3000162F81110E94E002EC2FF0E0EE0FFF1F51
:100E4000EC51FF4FA591B4919FB7F894111104C0D4
:100E50008C91D095D82302C0EC91DE2BDC939FBF00
:100E6000DF91CF911F910895CF93DF9390E0FC0124
:100E7000E15EFE4F2491FC01E050FF4F84918823F6
:100E800061F190E0880F991FFC01EA52FF4FC59174
:100E9000D491FC01EC51FF4FA591B491611109C0AF
:100EA0009FB7F8948881209582238883EC912E2324
:100EB0000BC0623061F49FB7F8948881322F30956F
:100EC00083238883EC912E2B2C939FBF06C08FB772
:100ED000F894E8812E2B28838FBFDF91CF9108955E
:100EE000823108F08251E82FF0E0E653FF4FE491A1
:100EF00080917B00E3FB222720F930E095E0220F70
:100F0000331F9A95E1F78F7D282B20937B00E770A4
:100F1000E064E0937C0080917A00806480937A00A2
:100F200080917A0086FDFCCF809178002091790035
:100F300090E0922B08958F929F92AF92BF92CF92A2
:100F4000DF92EF92FF926B017C010E941D034B0127
:100F50005C01C114D104E104F104F1F00E941D030D
:100F6000DC01CB0188199909AA09BB09883E934085
:100F7000A105B10570F321E0C21AD108E108F1081A
:100F800088EE880E83E0981EA11CB11CC114D10408
:100F9000E104F10419F7DDCFFF90EF90DF90CF90DF
:100FA000BF90AF909F908F9008958F929F92AF9235
:100FB000BF92CF92DF92EF92FF920F931F93CF9346
:100FC000DF936C017B018A0180910B01882309F476
:100FD0005CC080918C02882309F457C0809175020F
:100FE00080FF05C08091E00082608093E000E8010E
:100FF000B12C8AEFA82E93E0892E2AE3922E209717
:1010000011F4BB20D9F10E94430181110AC0AA94B6
:10101000AA20D9F161E070E080E090E00E949B0797
:10102000EECF282F30E0C217D3070CF48C2F9FB7D8
:10103000F8948092E9002091E80025FF1DC0282F38
:1010400030E0C21BD30BF701815020F04191409357
:10105000F100FACFE20EF31EBB2019F09092E800E7
:101060000AC08091E80085FD07C09092E800BB248B
:10107000B394209709F0B12C9FBFC1CF5D9884E64F
:10108000809374021016110644F081E090E0F6019E
:101090009383828380E090E001C0C801DF91CF910B
:1010A0001F910F91FF90EF90DF90CF90BF90AF9086
:1010B0009F908F9008951F920F920FB60F92112458
:1010C0002F933F938F939F93AF93BF93809167022A
:1010D00090916802A0916902B0916A023091660213
:1010E00023E0230F2D3720F40196A11DB11D05C06B
:1010F00026E8230F0296A11DB11D2093660280935E
:10110000670290936802A0936902B0936A0280918B
:101110006B0290916C02A0916D02B0916E020196EB
:10112000A11DB11D80936B0290936C02A0936D0280
:10113000B0936E02BF91AF919F918F913F912F918C
:101140000F900FBE0F901F901895CF93DF93EC0177
:10115000862F688349832A8360E00E94340761E018
:101160008881DF91CF910C940507CF93DF93EC0139
:1011700089810E9470079C838B838A810E947007FB
:101180009E838D8388810E94DC0621E0892B09F0F3
:1011900020E02F83CE010396DF91CF910895CF9366
:1011A000DF93EC0166E771E086E192E00E94DA06E7
:1011B0006B817C814AE050E086E192E00E94660605
:1011C00065E971E086E192E00E94DA066D817E8138
:1011D0004AE050E086E192E00E94660665E971E02F
:1011E00086E192E00E94DA066F8170E04AE050E00A
:1011F00086E192E00E94890668E971E086E192E06A
:10120000DF91CF910C94DA06CF92DF92EF92FF92AA
:101210006B017C0162E971E086E192E00E94DA06EE
:101220004AE050E0B60186E192E00E94660665E978
:1012300071E086E192E00E94DA064AE050E0B701F0
:1012400086E192E00E94660664EA71E086E192E03F
:10125000FF90EF90DF90CF900C94DA062F923F92A0
:101260004F925F926F927F928F929F92AF92BF92B6
:10127000CF92DF92EF92FF920F931F93CF93DF9362
:1012800000D000D000D0CDB7DEB71C0149835A830F
:101290006B837C8348015901260137014093C002CA
:1012A0005093C1026093C2027093C302009316016F
:1012B000109317012093180130931901C0921A015D
:1012C000D0921B01E0921C01F0921D01C801029610
:1012D0009093130180931201C5010296909315011A
:1012E000809314011E821D82D10112968D919C91D2
:1012F0001397ED81FE81E817F907F0F4CF01880F0D
:10130000991FED91FC91E80FF91F80819181DC011B
:10131000ED91FC910190F081E02D73016201950146
:10132000840149815A816B817C810995ED81FE811F
:101330003196FE83ED83D8CF26960FB6F894DEBFA4
:101340000FBECDBFDF91CF911F910F91FF90EF9016
:10135000DF90CF90BF90AF909F908F907F906F90D5
:101360005F904F903F902F900895CF92DF92EF9231
:10137000FF920F931F932CE031E0FC013183208317
:1013800023E030E033832283C0901A01D0901B0108
:10139000E0901C01F0901D010091160110911701C1
:1013A00020911801309119014091C0025091C10261
:1013B0006091C2027091C3020E942E091F910F9189
:1013C000FF90EF90DF90CF9008950F931F93CF93EE
:1013D000DF93FC0102811381A0E0B0E0FC01C08139
:1013E000D181A017B10709F1FD01EE0FFF1FEC0F2E
:1013F000FD1F0190F081E02D3485321314C0C281AD
:10140000D3816C177D0778F0C681D781C617D707BF
:1014100050F0C481D5814C175D0728F0C085D18577
:10142000C417D50720F41196D9CFEC81FD81CF01E7
:10143000DF91CF911F910F910895CF93DF93EB012F
:1014400067EA71E086E192E00E9452066BEC71E07F
:1014500086E192E00E94DA066D857E8586E192E063
:101460000E94520662ED71E086E192E00E94DA0687
:101470006A817B818C819D810E94040964E771E00F
:1014800086E192E00E94DA0668ED71E086E192E082
:101490000E94DA066E817F81888599850E94040901
:1014A00064E771E086E192E00E94DA066EED71E099
:1014B00086E192E00E94DA066A857B854AE050E088
:1014C00086E192E0DF91CF910C9475060F931F9304
:1014D000CF93DF938C01C0E0D0E0D80112968D91BC
:1014E0009C911397C817D90770F4CE01880F991FE4
:1014F000ED91FC91E80FF91F60817181C8010E9494
:101500001D0A2196EACFDF91CF911F910F91089587
:10151000E6E1F2E01382128288EE93E0A0E0B0E010
:1015200084839583A683B78389E291E09183808346
:101530008FEF9FEF958784878DE892E00C94B50933
:10154000789484B5826084BD84B5816084BD85B59E
:10155000826085BD85B5816085BD80916E008160AA
:1015600080936E0010928100809181008260809350
:101570008100809181008160809381008091800052
:1015800081608093800080919100826080939100BF
:1015900080919100816080939100809190008160A2
:1015A000809390008091C10084608093C1008091FD
:1015B000C10082608093C1008091C10081608093EE
:1015C000C1008091C30081608093C3008091C000FE
:1015D00082608093C0008091C20081608093C200CD
:1015E00080917A00846080937A0080917A00826092
:1015F00080937A0080917A00816080937A00809154
:101600007A00806880937A0010928C0210927602A1
:10161000109275028091D70081608093D70080EA94
:101620008093D80089B5806189BD89B5826089BD04
:1016300009B400FEFDCF61E070E080E090E00E9420
:101640009B078091D8008F7C80618093D800809127
:10165000E000807F8093E0008091E1008E7E8093A7
:10166000E1008DE08093E200559A209A23E142E167
:1016700062E087E792E00E94A5088FEF9FEF9093CA
:1016800023028093220268E873E180E090E00E94E8
:101690009B076AE371E086E192E00E94520687E7C9
:1016A00092E00E94B508FC01C080D180E280F38006
:1016B0000091160110911701209118013091190124
:1016C0004091C0025091C1026091C2027091C30268
:1016D0008DE892E00E942E0968E873E180E090E0D6
:1016E0000E949B0762E571E086E192E00E9452064B
:1016F0008DE892E00E94660AC0E0D0E087E792E0C1
:101700000E94B508FC01428153816081718124816E
:101710008DE892E00E94E509BC018DE892E00E940C
:101720001D0A87E792E00E94CF0867E571E086E135
:1017300092E00E94520668EE73E080E090E00E9422
:101740009B072097D9F20E940000D8CF8F929F92DA
:10175000AF92BF92CF92DF92EF92FF920F931F93BF
:10176000CF93DF93FC015B01D80149018785869502
:1017700090E0E601C81BD90BC417D50708F4EA01AD
:10178000D383C283E701C81BD90BCA15DB0508F454
:10179000EB01D583C483AC014C0D5D1DA417B507C7
:1017A00008F4A801578346838E0D9F1D881699065D
:1017B00008F4C90191878087DF91CF911F910F9124
:1017C000FF90EF90DF90CF90BF90AF909F908F9061
:1017D00008958F929F92AF92BF92CF92DF92EF9235
:1017E000FF920F931F93CF93DF93FC015B01D8010E
:1017F00049018785869590E0E601C81BD90BC4177F
:10180000D50708F4EA01D383C283E701C81BD90BCB
:10181000CA15DB0508F4EB01D583C483AC014C0D7C
:101820005D1DA417B50708F4A801578346838E0DE4
:101830009F1D8816990608F4C90191878087DF915A
:10184000CF911F910F91FF90EF90DF90CF90BF90BD
:10185000AF909F908F9008950F931F93FC01C80144
:10186000019693838283C901019695838483C8017D
:10187000029697838683C9010296918780871F917C
:101880000F910895E0EBF2E088E092E0918380838D
:1018900088E2878723EE31E0368725871486138612
:1018A0001286E0EAF2E02EE032E03183208387877F
:1018B00088EE91E09687858781E0848781E090E0DB
:1018C00093878287E1E9F2E084E192E0918380836B
:1018D0008CEF91E096878587148682E090E093876D
:1018E00082870895EE0FFF1F0590F491E02D099473
:1018F000A1E21A2EAA1BBB1BFD010DC0AA1FBB1F14
:10190000EE1FFF1FA217B307E407F50720F0A21B85
:10191000B30BE40BF50B661F771F881F991F1A94F2
:1019200069F760957095809590959B01AC01BD011C
:10193000CF01089581E090E0F8940C949F0CF89406
:02194000FFCFD7
:10194200FFFFFFFF00E1000000000000B002A00264
:10195200910201040104FF03FF03FF01FF0100C123
:101962008081000000000000005B02D5077C02714C
:1019720002C20280029E020D0A007761696E7469DA
:101982006E672063616C6962617274696F6E2E2E7C
:101992002E00646F6E65002E2E2E2E2E2E2E2E2ED3
:1019A2002E2E2E2E2E2E2E2E2E2E2E2E2E2E2E2E55
:1019B2002E2E0A0A0A005374617475733A2028782D
:1019C2002C792C627574746F6E5F707265737365B7
:1019D20064292028002C2000290A004552524F5227
:1019E20045200A002920002A2A2A2A2A2A2A2A2AC3
:1019F2002A2A2A2A2A2A2A2A2A2A2A2A2A2A2A2A45
:101A02002A2A2A2A2A2A2A2A2A2A004E616D653A75
:101A120009004D696E3A09004D61783A090049445E
:101A22003A090052657374005265737420427574EA
:101A3200746F6E205072657373656400556E6B6EC1
:101A42006F776E0000000000A60B00000000E90B9B
:061A5200000000002C0C56
:00000001FF
