:100000000C94EA000C9412010C9412010C9412014D
:100010000C9412010C9412010C9412010C94120114
:100020000C9412010C9412010C9461040C94D304EE
:100030000C9412010C9412010C9412010C941201F4
:100040000C9412010C9412010C9412010C941201E4
:100050000C9412010C9412010C9412010C943208AD
:100060000C9412010C9412010C9412010C941201C4
:100070000C9412010C9412010C9412010C941201B4
:100080000C9412010C9412010C9412010C941201A4
:100090000C9412010C9412010C9412010C94120194
:1000A0000C9412010C9412010C941201F702FA0242
:1000B000E902ED02F3021B031B031B03FE02020312
:1000C00006030C0310031B031603070605040100B7
:1000D000080A0B0C0D0900000000240027002A006C
:1000E0002D00300000000000250028002B002E000D
:1000F0003100000000002300260029002C002F0002
:1001000004040404040304050202020204030202BC
:10011000020206060606060604040202020404049D
:1001200008020110408040102040804080080204F6
:10013000018040201002011080102040402000006B
:10014000000200090F0000030401000C0000000081
:1001500000000000000000000000000000080B008C
:10016000020202000009040000010202000005244E
:1001700000100105240101010424020605240600E3
:10018000010705810310004009040100020A000074
:10019000000705020240000007058302400000043A
:1001A00003090412010002EF0201404123368000DE
:1001B000010102030141726475696E6F204C4C436A
:1001C0000041726475696E6F204C656F6E61726478
:1001D0006F00930911241FBECFEFDAE0DEBFCDBF61
:1001E00011E0A0E0B1E0EEEAF3E102C005900D926B
:1001F000AA34B107D9F721E0AAE4B1E001C01D9209
:10020000A13CB207E1F710E0CAEED0E004C02197AC
:10021000FE010E94CA09C93ED107C9F70E94DB0846
:100220000C94D5090C9400002091C001211103C049
:100230008FEF9FEF08955FB7F89422E02093E900D5
:100240002091F20030E01216130614F421E030E0A1
:10025000422FFC0184E6415038F028988093BF017A
:100260009091F1009193F7CF2115310521F0809104
:10027000F200882319F05FBFC90108958BE68093CF
:10028000E800F9CF2FB7F89483E08093E9009091CC
:10029000E800892F807295FF04C09091F20080E4FD
:1002A000891B2FBF08958091B70181110DC082E095
:1002B0008093B30184E08093B4011092B601109250
:1002C000B50181E08093B70183EB91E008954091FF
:1002D000A5015091A6012091A3013091A4014217DC
:1002E0005307B4F49091E8009570E1F39091E80021
:1002F00092FD19C08093F1008091A5019091A60113
:1003000001968F739927892B19F48EEF8093E8005B
:100310008091A5019091A60101969093A6018093EA
:10032000A50181E0089580E00895DF92EF92FF92A9
:100330000F931F93CF93DF93D82EF92EE42E062F21
:1003400010E0C8010196880F0E94670183E00E94B7
:100350006701CD2DDF2D0C0F1D1FC017D10789F0B0
:10036000E7FE03C0FE01849101C088810E946701FD
:10037000F82E80E00E9467018F2121968111EDCF38
:1003800001C081E0DF91CF911F910F91FF90EF901D
:10039000DF900895DF92EF92FF920F931F93CF9318
:1003A000DF93D82E8A017B01E40EF51EEB01CE15FA
:1003B000DF0571F0D7FE03C0FE01849101C0888182
:1003C0000E94670121968111F2CF8FEF9FEF01C04C
:1003D000C801DF91CF911F910F91FF90EF90DF90B7
:1003E00008950F931F93CF93DF931F92CDB7DEB77E
:1003F00082E0898342E450E06DE571E080E80E948C
:10040000CA010E945301DC0112960D911C911397B1
:100410000115110589F0D801ED91FC910280F3815D
:10042000E02DBE016F5F7F4FC801099597FD04C0A5
:10043000F80100851185ECCF89810F90DF91CF9174
:100440001F910F910895615030F02091F100FC014F
:1004500020830196F8CF289884E68093BF01089501
:10046000CF92DF92EF92FF920F931F93CF93DF9380
:100470006C017A018B01C0E0D0E0CE15DF0581F080
:10048000D8016D918D01D601ED91FC910190F08123
:10049000E02DC6010995892B11F02196EECF7E0142
:1004A000C701DF91CF911F910F91FF90EF90DF90E7
:1004B000CF900895CF93DF931F92CDB7DEB76983B6
:1004C000DC01ED91FC910280F381E02D41E050E0F0
:1004D000BE016F5F7F4F09950F90DF91CF91089517
:1004E00083E08093E9008091F200882319F08AE389
:1004F0008093E80008950E94420190E00895CF9310
:10050000DF931F92CDB7DEB7FC018485958597FDFB
:1005100005C02FEF3FEF358724870BC0CE01019632
:100520000E941401019719F4898190E002C08FEFB5
:100530009FEF0F90DF91CF9108950F931F93CF936B
:10054000DF931F92CDB7DEB78C01FC0184859585C2
:1005500097FF0EC0CE0101960E941401019719F475
:10056000898190E002C08FEF9FEFF8019587848723
:10057000F801848595850F90DF91CF911F910F91A0
:100580000895FC018485958597FD0BC09FB7F8946D
:1005900082E08093E9008091F2009FBF90E0019695
:1005A00008959FB7F89482E08093E9008091F2006B
:1005B0009FBF90E00895089580E090E0089590E056
:1005C000FC013197EF30F105B0F5EA5AFF4F0C947A
:1005D000CA09809180008F7703C0809180008F7D51
:1005E00080938000089580918000877FF9CF84B543
:1005F0008F7702C084B58F7D84BD0895809190006F
:100600008F7707C0809190008F7D03C0809190000C
:10061000877F8093900008958091C0008F7703C0FA
:100620008091C0008F7D8093C00008958091C200AA
:10063000877F8093C20008953FB7F89480919F010F
:100640009091A001A091A101B091A20126B5A89B13
:1006500005C02F3F19F00196A11DB11D3FBFBA2F54
:10066000A92F982F8827820F911DA11DB11DBC01B4
:10067000CD0142E0660F771F881F991F4A95D1F779
:1006800008958F929F92AF92BF92CF92DF92EF9296
:10069000FF926B017C010E941C034B015C01C114A1
:1006A000D104E104F104F1F00E941C03DC01CB0150
:1006B00088199909AA09BB09883E9340A105B1058B
:1006C00070F321E0C21AD108E108F10888EE880E23
:1006D00083E0981EA11CB11CC114D104E104F104F3
:1006E00019F7DDCFFF90EF90DF90CF90BF90AF90E4
:1006F0009F908F9008958F929F92AF92BF92CF92CA
:10070000DF92EF92FF920F931F93CF93DF936C01D1
:100710007B018A0180910B01882309F45CC08091E0
:10072000C001882309F457C08091A90180FF05C04A
:100730008091E00082608093E000E801B12C8AEFB4
:10074000A82E93E0892E2AE3922E209711F4BB2045
:10075000D9F10E94420181110AC0AA94AA20D9F1BC
:1007600061E070E080E090E00E944103EECF282F2E
:1007700030E0C217D3070CF48C2F9FB7F894809207
:10078000E9002091E80025FF1DC0282F30E0C21BA2
:10079000D30BF701815020F041914093F100FACF43
:1007A000E20EF31EBB2019F09092E8000AC080917F
:1007B000E80085FD07C09092E800BB24B394209721
:1007C00009F0B12C9FBFC1CF5D9884E68093A8014A
:1007D0001016110644F081E090E0F60193838283C5
:1007E00080E090E001C0C801DF91CF911F910F918F
:1007F000FF90EF90DF90CF90BF90AF909F908F9041
:1008000008956115710579F0FB0101900020E9F769
:100810003197AF01461B570BDC01ED91FC91028033
:10082000F381E02D099480E090E008958F929F92EB
:10083000AF92BF92EF92FF920F931F93CF93DF93EC
:10084000CDB7DEB7A1970FB6F894DEBF0FBECDBF10
:100850007C01FA01CB0119A2223008F42AE08E01B2
:100860000F5D1F4F822E912CA12CB12CBF01A50131
:1008700094010E94A809F901CA01015011096A30C6
:1008800014F4605D01C0695CD8016C93232B242BA8
:10089000252B61F7B801C7010E940104A1960FB68C
:1008A000F894DEBF0FBECDBFDF91CF911F910F91A6
:1008B000FF90EF90BF90AF909F908F9008950E940F
:1008C000D0091F920F920FB60F9211248F939F930E
:1008D0008091E1009091E100937F9093E10083FF8C
:1008E0000FC01092E90091E09093EB001092EC00A1
:1008F00092E39093ED001092C00198E09093F00085
:1009000082FF20C093E09093E9009091F200992338
:1009100019F09AE39093E8009091A801992339F097
:100920009091A80191509093A801992389F19091F9
:10093000BF01992339F09091BF0191509093BF016D
:10094000992341F184FF10C08091E2008E7E816086
:100950008093E2008091E1008F7E8093E10080919E
:10096000A9018E7E806111C080FF16C08091E200D7
:100970008E7E80618093E2008091E1008E7E809384
:10098000E1008091A9018E7E81608093A90104C05D
:100990005D9ACDCF289AD6CF9F918F910F900FBEA1
:1009A0000F901F9018951F920F920FB60F9211245F
:1009B000CF92DF92EF92FF920F931F932F933F936B
:1009C0004F935F936F937F938F939F93AF93BF9357
:1009D000EF93FF93CF93DF93CDB7DEB76C97DEBF76
:1009E000CDBF1092E9008091E80083FFFBC168E071
:1009F000CE0145960E94230282EF8093E8008D8904
:100A000087FF05C09091E80090FFFCCF03C09EEFE8
:100A10009093E800982F907609F0C6C09E894F8980
:100A2000588D2F89F88C91110CC0803829F4809151
:100A3000AA018093F10002C01092F1001092F1001F
:100A400045C1913051F4811141C14130510509F046
:100A50003DC18091AA018D7F0BC0933061F481115B
:100A600035C14130510509F031C18091AA01826040
:100A70008093AA012BC1953049F48091E80080FF52
:100A8000FCCF822F80688093E30020C1963009F06C
:100A90005EC00B8D1C8D22E01092E9001092A60121
:100AA0001092A501F21232C01092A4011092A3017B
:100AB0000E94F10199E0BE016F5F7F4FDB01E92FDA
:100AC0001D92EA95E9F79983FA8291E09E8390EA74
:100AD00098879AEF99872091A5013091A601275F09
:100AE0003F4F3C832B838D831092E9001092A60127
:100AF0001092A5011093A4010093A30149E050E0D6
:100B000080E00E94CA010E94F101E0C01093A4019C
:100B10000093A3010E945301DC0112960D911C91D8
:100B200013970115110509F4BBC0D801ED91FC9193
:100B30000480F581E02DBE016B5E7F4FC8010995F1
:100B4000009709F0C7C0F80100851185EACF9730FA
:100B500009F445C1983021F481E08093F100B6C0DA
:100B6000993009F0B3C0837009F039C1EFE1F1E0C9
:100B700081E031E096E32081211109C08EE7809366
:100B8000EA001092EA008F898093C0019FC0809391
:100B9000E9003093EB0021912093EC009093ED005D
:100BA0008F5F873041F7EACF8B8D9C8D1092E900E3
:100BB0001092A6011092A5019093A4018093A30125
:100BC000898D811153C08E899D89913A49F4813272
:100BD00009F005C147E050E064E071E080E0BBC08F
:100BE000913209F0FCC0833269F48F89988DA0E0BE
:100BF000B0E08093000190930101A0930201B093B3
:100C0000030164C0803269F48091E80082FFFCCF68
:100C100067E084E091E00E9423028BEF8093E8007C
:100C200055C0823209F052C08F8980930B01EEEFDC
:100C3000FFE7859194918B3F9C4D19F0E0E0F8E03F
:100C400002C0EEEFFAE08091040190910501A091BD
:100C50000601B0910701803B9440A105B10509F060
:100C60009EC080910B0180FF79C099C00E94530102
:100C7000FC01028113810115110509F4B0C0D801EE
:100C8000ED91FC910190F081E02DBE016B5E7F4FF4
:100C9000C801099581111AC0F80100851185EBCFB3
:100CA000F1E0FF1609F44EC0F3E0FF1298C08F89FF
:100CB000882309F44AC0823089F440E860E181EC7D
:100CC00091E00E949501882309F489C08EEF8093FA
:100CD000E80088C018161906CCF381C0813029F4C9
:100CE00040E86BE085EB91E0ECCF833009F077C012
:100CF0000E945301DC011296ED90FC9013978E0137
:100D00000F5F1F4F6801E114F10479F0D701ED91F5
:100D1000FC910680F781E02DB801C7010995080F05
:100D2000111DF701E084F184EECFD8011C92F60189
:100D300001900020E9F73197BF016C197D0940E06F
:100D4000C601BFCF63EA71E002C06FE971E0FB0149
:100D5000449150E080E80E94CA01B8CFEE3F2AE0FB
:100D6000F20751F0808191818737A7E79A0721F038
:100D70009093FF0A8093FE0A87E797E79183808329
:100D8000809160008093A7019BE088E10FB6F89402
:100D9000A895809360000FBE9093600097CF8081EC
:100DA00091818737974709F091CFA895809160008E
:100DB0008861809360008091A70180936000EE3F7E
:100DC000BAE0FB0739F08091FE0A9091FF0A918307
:100DD00080837CCF1092FF0A1092FE0A77CF81E2C7
:100DE0008093EB006C960FB6F894DEBF0FBECDBFBC
:100DF000DF91CF91FF91EF91BF91AF919F918F9133
:100E00007F916F915F914F913F912F911F910F9122
:100E1000FF90EF90DF90CF900F900FBE0F901F903C
:100E200018959A01452B39F4DC01ED91FC91019064
:100E3000F081E02D0994AB0160E070E00C941604A1
:100E4000CF92DF92EF92FF920F931F93CF93DF9396
:100E50004115510579F4DC01ED91FC910190F0818F
:100E6000E02DDF91CF911F910F91FF90EF90DF90D8
:100E7000CF9009946B01770FEE08FF084A305105B7
:100E800019F5F7FE1FC0EC01E881F9810190F081AE
:100E9000E02D6DE209958C0144275527BA014C19C4
:100EA0005D096E097F092AE0CE010E941604800FB9
:100EB000911FDF91CF911F910F91FF90EF90DF90E5
:100EC000CF9008952AE001C0242FB701A601DF9139
:100ED000CF911F910F91FF90EF90DF90CF900C94E6
:100EE00016040C940104CF93DF93282F30E0F9010E
:100EF000E25CFE4F8491F901E15EFE4FD491F9016D
:100F0000E050FF4FC491CC2391F081110E94DF0289
:100F1000EC2FF0E0EE0FFF1FEE50FF4FA591B491C4
:100F2000EC91ED2381E090E021F480E002C080E0CC
:100F300090E0DF91CF9108951F93CF93DF93282FF7
:100F400030E0F901E25CFE4F8491F901E15EFE4F71
:100F5000D491F901E050FF4FC491CC23C1F0162F7A
:100F600081110E94DF02EC2FF0E0EE0FFF1FEC5129
:100F7000FF4FA591B4919FB7F894111104C08C91C3
:100F8000D095D82302C0EC91DE2BDC939FBFDF917C
:100F9000CF911F910895CF93DF9390E0FC01E15E24
:100FA000FE4F2491FC01E050FF4F8491882361F1B2
:100FB00090E0880F991FFC01EA52FF4FC591D49130
:100FC000FC01EC51FF4FA591B491611109C09FB78D
:100FD000F8948881209582238883EC912E230BC07E
:100FE000623061F49FB7F8948881322F3095832363
:100FF0008883EC912E2B2C939FBF06C08FB7F8945B
:10100000E8812E2B28838FBFDF91CF910895823105
:1010100008F08251E82FF0E0E653FF4FE491809111
:101020007B00E3FB222720F930E095E0220F331FFD
:101030009A95E1F78F7D282B20937B00E770E06481
:10104000E0937C0080917A00806480937A008091A4
:101050007A0086FDFCCF809178002091790090E0A5
:10106000922B08951F920F920FB60F9211242F9377
:101070003F938F939F93AF93BF9380919B019091E8
:101080009C01A0919D01B0919E0130919A0123E0B5
:10109000230F2D3720F40196A11DB11D05C026E8B0
:1010A000230F0296A11DB11D20939A0180939B01ED
:1010B00090939C01A0939D01B0939E0180919F010C
:1010C0009091A001A091A101B091A2010196A11D52
:1010D000B11D80939F019093A001A093A101B093B3
:1010E000A201BF91AF919F918F913F912F910F904E
:1010F0000FBE0F901F901895CF93DF93EC01862FB2
:10110000688349832A8360E00E94CB0761E088817D
:10111000DF91CF910C949C07CF93DF93EC018981F1
:101120000E9407089C838B838A810E9407089E8304
:101130008D8388810E94730721E0892B09F020E0CC
:101140002F83CE010396DF91CF910895CF93DF9344
:10115000EC0165E271E08AE491E00E9471076B8125
:101160007C814AE050E08AE491E00E94110764E447
:1011700071E08AE491E00E9471076D817E814AE00E
:1011800050E08AE491E00E94110764E471E08AE48F
:1011900091E00E9471076F8170E04AE050E08AE4BC
:1011A00091E00E94200767E471E08AE491E0DF911A
:1011B000CF910C947107789484B5826084BD84B516
:1011C000816084BD85B5826085BD85B5816085BD42
:1011D00080916E00816080936E00109281008091FA
:1011E0008100826080938100809181008160809382
:1011F00081008091800081608093800080919100C7
:101200008260809391008091910081608093910031
:10121000809190008160809390008091C1008460F3
:101220008093C1008091C10082608093C100809151
:10123000C10081608093C1008091C3008160809370
:10124000C3008091C00082608093C0008091C20082
:1012500081608093C20080917A00846080937A00DC
:1012600080917A00826080937A0080917A00816018
:1012700080937A0080917A00806880937A0010923F
:10128000C0011092AA011092A9018091D70081603B
:101290008093D70080EA8093D80089B5806189BDAA
:1012A00089B5826089BD09B400FEFDCF61E070E0C0
:1012B00080E090E00E9441038091D8008F7C8061A3
:1012C0008093D8008091E000807F8093E00080913F
:1012D000E1008E7E8093E1008DE08093E200559ADC
:1012E000209A23E142E162E08BEA91E00E947C08CF
:1012F0008FEF9FEF9093570180935601C0E0D0E0AD
:101300008BEA91E00E948C088BEA91E00E94A6088B
:1013100068EE73E080E090E00E944103209781F343
:101320000E940000EDCFEAE4F1E01382128288EE21
:1013300093E0A0E0B0E084839583A683B78380E147
:1013400091E0918380838FEF9FEF95878487089545
:10135000A1E21A2EAA1BBB1BFD010DC0AA1FBB1FB9
:10136000EE1FFF1FA217B307E407F50720F0A21B2B
:10137000B30BE40BF50B661F771F881F991F1A9498
:1013800069F760957095809590959B01AC01BD01C2
:10139000CF010895EE0FFF1F0590F491E02D099401
:0E13A00081E090E0F8940C94D509F894FFCF0A
:1013AE00FFFFFFFF00E10000000000000000000052
:1013BE005A027B037B027002C1027F029D0200C1B2
:1013CE0080810000005374617475733A2028782C64
:1013DE00792C627574746F6E5F7072657373656469
:0A13EE00292028002C2000290A0005
:00000001FF
