:100000000C94EC000C9414010C9414010C94140145
:100010000C9414010C9414010C9414010C9414010C
:100020000C9414010C9414010C94A3030C94150467
:100030000C9414010C9414010C9414010C941401EC
:100040000C9414010C9414010C9414010C941401DC
:100050000C9414010C9414010C9414010C945C087D
:100060000C9414010C9414010C9414010C941401BC
:100070000C9414010C9414010C9414010C941401AC
:100080000C9414010C9414010C9414010C9414019C
:100090000C9414010C9414010C9414010C9414018C
:1000A0000C9414010C9414010C941401F902FC0238
:1000B000EB02EF02F5021D031D031D030003040301
:1000C00008030E0312031D031803070605040100AD
:1000D000080A0B0C0D0900000000240027002A006C
:1000E0002D00300000000000250028002B002E000D
:1000F0003100000000002300260029002C002F0002
:1001000004040404040304050202020204030202BC
:10011000020206060606060604040202020404049D
:1001200008020110408040102040804080080204F6
:10013000018040201002011080102040402000006B
:10014000000200090F0000030401000C0000000081
:1001500000000000000000000000000000080B008C
:10016000020202000009040000010202000005244E
:1001700000100105240101010424020605240600E3
:10018000010705810310004009040100020A000074
:10019000000705020240000007058302400000043A
:1001A00003090412010002EF0201404123368000DE
:1001B000010102030141726475696E6F204C4C436A
:1001C0000041726475696E6F204C656F6E61726478
:1001D0006F008D0F5211801311241FBECFEFDAE094
:1001E000DEBFCDBF12E0A0E0B1E0E0EFF7E202C079
:1001F00005900D92A03BB107D9F724E0A0EBB2E047
:1002000001C01D92AA34B207E1F710E0CCEED0E0B5
:1002100004C02197FE010E94C913C93ED107C9F746
:100220000E94AD0F0C94F6130C940000209126034D
:10023000211103C08FEF9FEF08955FB7F89422E07C
:100240002093E9002091F20030E01216130614F416
:1002500021E030E0422FFC0184E6415038F028983C
:10026000809325039091F1009193F7CF21153105EB
:1002700021F08091F200882319F05FBFC901089531
:100280008BE68093E800F9CF2FB7F89483E0809352
:10029000E9009091E800892F807295FF04C0909149
:1002A000F20080E4891B2FBF089580911D03811106
:1002B0000DC082E08093190384E080931A031092AA
:1002C0001C0310921B0381E080931D0389E193E0DE
:1002D000089540910B0350910C0320910903309134
:1002E0000A0342175307B4F49091E8009570E1F3C4
:1002F0009091E80092FD19C08093F10080910B036A
:1003000090910C0301968F739927892B19F48EEF26
:100310008093E80080910B0390910C0301969093D9
:100320000C0380930B0381E0089580E00895DF9231
:10033000EF92FF920F931F93CF93DF93D82EF92E56
:10034000E42E062F10E0C8010196880F0E94690173
:1003500083E00E946901CD2DDF2D0C0F1D1FC017FA
:10036000D10789F0E7FE03C0FE01849101C08881B6
:100370000E946901F82E80E00E9469018F21219678
:100380008111EDCF01C081E0DF91CF911F910F91DD
:10039000FF90EF90DF900895DF92EF92FF920F931E
:1003A0001F93CF93DF93D82E8A017B01E40EF51EB5
:1003B000EB01CE15DF0571F0D7FE03C0FE0184917D
:1003C00001C088810E94690121968111F2CF8FEFCF
:1003D0009FEF01C0C801DF91CF911F910F91FF9056
:1003E000EF90DF9008950F931F93CF93DF931F92A9
:1003F000CDB7DEB782E0898342E450E06DE571E07D
:1004000080E80E94CC010E945501DC0112960D91FA
:100410001C9113970115110589F0D801ED91FC91FC
:100420000280F381E02DBE016F5F7F4FC801099507
:1004300097FD04C0F80100851185ECCF89810F90EC
:10044000DF91CF911F910F910895615030F020916D
:10045000F100FC0120830196F8CF289884E6809370
:1004600025030895CF92DF92EF92FF920F931F938F
:10047000CF93DF936C017A018B01C0E0D0E0CE1501
:10048000DF0581F0D8016D918D01D601ED91FC91D0
:100490000190F081E02DC6010995892B11F021967C
:1004A000EECF7E01C701DF91CF911F910F91FF9099
:1004B000EF90DF90CF900895CF93DF931F92CDB749
:1004C000DEB76983DC01ED91FC910280F381E02DC0
:1004D00041E050E0BE016F5F7F4F09950F90DF91C3
:1004E000CF91089583E08093E9008091F200882302
:1004F00019F08AE38093E80008950E94440190E097
:100500000895CF93DF931F92CDB7DEB7FC018485AA
:10051000958597FD05C02FEF3FEF358724870BC0EA
:10052000CE0101960E941601019719F4898190E08D
:1005300002C08FEF9FEF0F90DF91CF9108950F933F
:100540001F93CF93DF931F92CDB7DEB78C01FC01D1
:100550008485958597FF0EC0CE0101960E941601F5
:10056000019719F4898190E002C08FEF9FEFF801A5
:1005700095878487F801848595850F90DF91CF91C9
:100580001F910F910895FC018485958597FD0BC0FF
:100590009FB7F89482E08093E9008091F2009FBFBA
:1005A00090E0019608959FB7F89482E08093E90067
:1005B0008091F2009FBF90E00895089580E090E060
:1005C000089590E0FC013197EF30F105B0F5EA5A5B
:1005D000FF4F0C94C913809180008F7703C08091E6
:1005E00080008F7D80938000089580918000877FB8
:1005F000F9CF84B58F7702C084B58F7D84BD08950F
:10060000809190008F7707C0809190008F7D03C00C
:1006100080919000877F8093900008958091C00022
:100620008F7703C08091C0008F7D8093C0000895B4
:100630008091C200877F8093C20008953FB7F894ED
:100640008091050390910603A0910703B0910803E0
:1006500026B5A89B05C02F3F19F00196A11DB11D1D
:100660003FBFBA2FA92F982F8827820F911DA11D58
:10067000B11DBC01CD0142E0660F771F881F991F95
:100680004A95D1F708956115710579F0FB01019044
:100690000020E9F73197AF01461B570BDC01ED91C4
:1006A000FC910280F381E02D099480E090E00895B0
:1006B0008F929F92AF92BF92EF92FF920F931F93F0
:1006C000CF93DF93CDB7DEB7A1970FB6F894DEBF17
:1006D0000FBECDBF7C01FA01CB0119A2223008F474
:1006E0002AE08E010F5D1F4F822E912CA12CB12C80
:1006F000BF01A50194010E94CF13F901CA01015065
:1007000011096A3014F4605D01C0695CD8016C9312
:10071000232B242B252B61F7B801C7010E9443032B
:10072000A1960FB6F894DEBF0FBECDBFDF91CF917B
:100730001F910F91FF90EF90BF90AF909F908F907F
:1007400008950E94F1131F920F920FB60F92112479
:100750008F939F938091E1009091E100937F90931C
:10076000E10083FF0FC01092E90091E09093EB004D
:100770001092EC0092E39093ED001092260398E023
:100780009093F00082FF20C093E09093E900909155
:10079000F200992319F09AE39093E80090910E03E8
:1007A000992339F090910E03915090930E03992361
:1007B00089F190912503992339F090912503915067
:1007C00090932503992341F184FF10C08091E200AA
:1007D0008E7E81608093E2008091E1008F7E809325
:1007E000E10080910F038E7E806111C080FF16C0F2
:1007F0008091E2008E7E80618093E2008091E10032
:100800008E7E8093E10080910F038E7E81608093C5
:100810000F0304C05D9ACDCF289AD6CF9F918F91B8
:100820000F900FBE0F901F9018951F920F920FB64A
:100830000F921124CF92DF92EF92FF920F931F93AA
:100840002F933F934F935F936F937F938F939F93D8
:10085000AF93BF93EF93FF93CF93DF93CDB7DEB703
:100860006C97DEBFCDBF1092E9008091E80083FF56
:10087000FBC168E0CE0145960E94250282EF80937D
:10088000E8008D8987FF05C09091E80090FFFCCFBC
:1008900003C09EEF9093E800982F907609F0C6C0B1
:1008A0009E894F89588D2F89F88C91110CC0803802
:1008B00029F4809110038093F10002C01092F1009E
:1008C0001092F10045C1913051F4811141C1413084
:1008D000510509F03DC1809110038D7F0BC093300D
:1008E00061F4811135C14130510509F031C1809168
:1008F00010038260809310032BC1953049F48091DE
:10090000E80080FFFCCF822F80688093E30020C145
:10091000963009F05EC00B8D1C8D22E01092E9002C
:1009200010920C0310920B03F21232C010920A03C1
:10093000109209030E94F30199E0BE016F5F7F4F9F
:10094000DB01E92F1D92EA95E9F79983FA8291E09C
:100950009E8390EA98879AEF998720910B033091B4
:100960000C03275F3F4F3C832B838D831092E9005C
:1009700010920C0310920B0310930A0300930903C7
:1009800049E050E080E00E94CC010E94F301E0C009
:1009900010930A03009309030E945501DC0112968B
:1009A0000D911C9113970115110509F4BBC0D801D5
:1009B000ED91FC910480F581E02DBE016B5E7F4FCF
:1009C000C8010995009709F0C7C0F8010085118595
:1009D000EACF973009F445C1983021F481E0809343
:1009E000F100B6C0993009F0B3C0837009F039C185
:1009F000EFE1F1E081E031E096E32081211109C0CF
:100A00008EE78093EA001092EA008F898093260394
:100A10009FC08093E9003093EB0021912093EC007C
:100A20009093ED008F5F873041F7EACF8B8D9C8DDF
:100A30001092E90010920C0310920B0390930A039A
:100A400080930903898D811153C08E899D89913AC4
:100A500049F4813209F005C147E050E064E071E0FB
:100A600080E0BBC0913209F0FCC0833269F48F8909
:100A7000988DA0E0B0E08093000190930101A093D5
:100A80000201B093030164C0803269F48091E800F0
:100A900082FFFCCF67E084E091E00E9425028BEFAB
:100AA0008093E80055C0823209F052C08F8980934C
:100AB0000B01EEEFFFE7859194918B3F9C4D19F070
:100AC000E0E0F8E002C0EEEFFAE0809104019091DE
:100AD0000501A0910601B0910701803B9440A1055A
:100AE000B10509F09EC080910B0180FF79C099C0CB
:100AF0000E945501FC01028113810115110509F4C1
:100B0000B0C0D801ED91FC910190F081E02DBE01C3
:100B10006B5E7F4FC801099581111AC0F8010085ED
:100B20001185EBCFF1E0FF1609F44EC0F3E0FF12A0
:100B300098C08F89882309F44AC0823089F440E83C
:100B400060E181EC91E00E949701882309F489C05B
:100B50008EEF8093E80088C018161906CCF381C088
:100B6000813029F440E86BE085EB91E0ECCF8330F5
:100B700009F077C00E945501DC011296ED90FC90BF
:100B800013978E010F5F1F4F6801E114F10479F094
:100B9000D701ED91FC910680F781E02DB801C701E6
:100BA0000995080F111DF701E084F184EECFD801FB
:100BB0001C92F60101900020E9F73197BF016C19F2
:100BC0007D0940E0C601BFCF63EA71E002C06FE972
:100BD00071E0FB01449150E080E80E94CC01B8CF65
:100BE000EE3F2AE0F20751F0808191818737A7E735
:100BF0009A0721F09093FF0A8093FE0A87E797E710
:100C0000918380838091600080930D039BE088E155
:100C10000FB6F894A895809360000FBE9093600083
:100C200097CF808191818737974709F091CFA89519
:100C30008091600088618093600080910D038093B3
:100C40006000EE3FBAE0FB0739F08091FE0A909118
:100C5000FF0A918380837CCF1092FF0A1092FE0AD4
:100C600077CF81E28093EB006C960FB6F894DEBFED
:100C70000FBECDBFDF91CF91FF91EF91BF91AF91AB
:100C80009F918F917F916F915F914F913F912F91A4
:100C90001F910F91FF90EF90DF90CF900F900FBEBC
:100CA0000F901F9018950F931F93CF93DF93EC0134
:100CB0000E9443038C0167E371E0CE010E9443036D
:100CC000800F911FDF91CF911F910F9108959A018D
:100CD000452B39F4DC01ED91FC910190F081E02D80
:100CE0000994AB0160E070E00C9458030F931F93DC
:100CF000CF93DF93EC010E9467068C0167E371E0FC
:100D0000CE010E944303800F911FDF91CF911F916D
:100D10000F910895CF92DF92EF92FF920F931F935E
:100D2000CF93DF934115510579F4DC01ED91FC91EE
:100D30000190F081E02DDF91CF911F910F91FF90F5
:100D4000EF90DF90CF9009946B01770FEE08FF08CA
:100D50004A30510519F5F7FE1FC0EC01E881F98111
:100D60000190F081E02D6DE209958C014427552713
:100D7000BA014C195D096E097F092AE0CE010E9473
:100D80005803800F911FDF91CF911F910F91FF901A
:100D9000EF90DF90CF9008952AE001C0242FB70193
:100DA000A601DF91CF911F910F91FF90EF90DF90FF
:100DB000CF900C9458030C944303CF93DF93282FC8
:100DC00030E0F901E25CFE4F8491F901E15EFE4FF3
:100DD000D491F901E050FF4FC491CC2391F08111DF
:100DE0000E94E102EC2FF0E0EE0FFF1FEE50FF4FEC
:100DF000A591B491EC91ED2381E090E021F480E0A5
:100E000002C080E090E0DF91CF9108951F93CF93CF
:100E1000DF93282F30E0F901E25CFE4F8491F90165
:100E2000E15EFE4FD491F901E050FF4FC491CC2315
:100E3000C1F0162F81110E94E102EC2FF0E0EE0FBD
:100E4000FF1FEC51FF4FA591B4919FB7F89411117A
:100E500004C08C91D095D82302C0EC91DE2BDC939A
:100E60009FBFDF91CF911F910895CF93DF9390E0C3
:100E7000FC01E15EFE4F2491FC01E050FF4F8491A4
:100E8000882361F190E0880F991FFC01EA52FF4F1F
:100E9000C591D491FC01EC51FF4FA591B491611122
:100EA00009C09FB7F8948881209582238883EC91AC
:100EB0002E230BC0623061F49FB7F8948881322FE3
:100EC000309583238883EC912E2B2C939FBF06C0F3
:100ED0008FB7F894E8812E2B28838FBFDF91CF91B5
:100EE0000895823108F08251E82FF0E0E653FF4F79
:100EF000E49180917B00E3FB222720F930E095E02C
:100F0000220F331F9A95E1F78F7D282B20937B00CA
:100F1000E770E064E0937C0080917A0080648093C5
:100F20007A0080917A0086FDFCCF80917800209134
:100F3000790090E0922B08958F929F92AF92BF928A
:100F4000CF92DF92EF92FF926B017C010E941E0311
:100F50004B015C01C114D104E104F104F1F00E94E1
:100F60001E03DC01CB0188199909AA09BB09883E37
:100F70009340A105B10570F321E0C21AD108E10840
:100F8000F10888EE880E83E0981EA11CB11CC114E4
:100F9000D104E104F10419F7DDCFFF90EF90DF9069
:100FA000CF90BF90AF909F908F9008958F929F9217
:100FB000AF92BF92CF92DF92EF92FF920F931F9367
:100FC000CF93DF936C017B018A0180910B01882311
:100FD00009F45CC080912603882309F457C08091EE
:100FE0000F0380FF05C08091E00082608093E000E5
:100FF000E801B12C8AEFA82E93E0892E2AE3922EE5
:10100000209711F4BB20D9F10E94440181110AC03C
:10101000AA94AA20D9F161E070E080E090E00E94FB
:101020009C07EECF282F30E0C217D3070CF48C2F8B
:101030009FB7F8948092E9002091E80025FF1DC039
:10104000282F30E0C21BD30BF701815020F04191D3
:101050004093F100FACFE20EF31EBB2019F09092FC
:10106000E8000AC08091E80085FD07C09092E80082
:10107000BB24B394209709F0B12C9FBFC1CF5D98DA
:1010800084E680930E031016110644F081E090E090
:10109000F6019383828380E090E001C0C801DF9174
:1010A000CF911F910F91FF90EF90DF90CF90BF9065
:1010B000AF909F908F9008951F920F920FB60F924E
:1010C00011242F933F938F939F93AF93BF9380915E
:1010D000010390910203A0910303B09104033091A6
:1010E000000323E0230F2D3720F40196A11DB11D2D
:1010F00005C026E8230F0296A11DB11D2093000311
:101100008093010390930203A0930303B09304031D
:101110008091050390910603A0910703B091080305
:101120000196A11DB11D8093050390930603A09322
:101130000703B0930803BF91AF919F918F913F91A7
:101140002F910F900FBE0F901F901895CF93DF93A4
:10115000EC01862F688349832A8360E00E9435076B
:1011600061E08881DF91CF910C940607CF93DF93E4
:10117000EC0189810E9471079C838B838A810E9484
:1011800071079E838D8388810E94DD0621E0892B73
:1011900009F020E02F83CE010396DF91CF910895CF
:1011A000CF93DF93EC0166E771E080EB92E00E9461
:1011B000DB066B817C814AE050E080EB92E00E948C
:1011C000670665E971E080EB92E00E94DB066D81C5
:1011D0007E814AE050E080EB92E00E94670665E97C
:1011E00071E080EB92E00E94DB066F8170E04AE0E4
:1011F00050E080EB92E00E948A0668E971E080EBA3
:1012000092E0DF91CF910C94DB06CF92DF92EF92C8
:10121000FF926B017C0162E971E080EB92E00E9439
:10122000DB064AE050E0B60180EB92E00E946706E0
:1012300065E971E080EB92E00E94DB064AE050E055
:10124000B70180EB92E00E94670664EA71E080EBF0
:1012500092E0FF90EF90DF90CF900C94DB062F92FE
:101260003F924F925F926F927F928F929F92AF9236
:10127000BF92CF92DF92EF92FF920F931F93CF9383
:10128000DF9300D000D000D0CDB7DEB71C0149837A
:101290005A836B837C8348015901260137014093AF
:1012A0006E0350936F036093700370937103009308
:1012B0001601109317012093180130931901C09261
:1012C0001A01D0921B01E0921C01F0921D01C8018D
:1012D00002969093130180931201C5010296909398
:1012E0001501809314011E821D82D10116968D91E5
:1012F0009C911797ED81FE81E817F90700F5CF0162
:10130000880F991F1496ED91FC911597E80FF91F1E
:1013100080819181DC01ED91FC910190F081E02DC3
:10132000730162019501840149815A816B817C813D
:101330000995ED81FE813196FE83ED83D6CF269609
:101340000FB6F894DEBF0FBECDBFDF91CF911F91D6
:101350000F91FF90EF90DF90CF90BF90AF909F9054
:101360008F907F906F905F904F903F902F90089557
:10137000CF92DF92EF92FF920F931F9328E032E01B
:10138000FC01318320832CE031E03583248323E08A
:1013900030E03783268313821282C0901A01D090E6
:1013A0001B01E0901C01F0901D01009116011091AD
:1013B0001701209118013091190140916E0350914D
:1013C0006F0360917003709171030E942F091F9148
:1013D0000F91FF90EF90DF90CF9008950F931F93A0
:1013E000CF93DF93FC0106811781A0E0B0E0FC0100
:1013F000C481D581A017B10709F1FD01EE0FFF1FD0
:10140000EC0FFD1F0190F081E02D3485321314C0E4
:10141000C281D3816C177D0778F0C681D781C6174A
:10142000D70750F0C481D5814C175D0728F0C085DF
:10143000D185C417D50720F41196D9CFEC81FD8151
:10144000CF01DF91CF911F910F910895CF93DF933B
:10145000EB0167EA71E080EB92E00E9453066BECCF
:1014600071E080EB92E00E94DB066D857E8580EB6B
:1014700092E00E94530662ED71E080EB92E00E94E0
:10148000DB066A817B818C819D810E94050964E76E
:1014900071E080EB92E00E94DB0668ED71E080EB8A
:1014A00092E00E94DB066E817F81888599850E948B
:1014B000050964E771E080EB92E00E94DB066EEDC7
:1014C00071E080EB92E00E94DB066A857B854AE052
:1014D00050E080EB92E0DF91CF910C9476060F9371
:1014E0001F93CF93DF938C01C0E0D0E0D801169614
:1014F0008D919C911797C817D90780F4CE01880F5A
:10150000991F1496ED91FC911597E80FF91F6081D2
:101510007181C8010E94260A2196E8CFDF91CF9100
:101520001F910F910895FC016130710509F4B8C055
:1015300008F45EC06230710509F40AC163307105B8
:1015400009F05EC18FE192E090933B0480933A04EE
:101550001092390486E090E0909338048093370429
:10156000A481B5818DE294E01D969C938E931C9787
:1015700085E292E090932C0480932B0410922A042D
:1015800084E090E09093290480932804A481B5819D
:101590008EE194E019969C938E9318978AE292E0DC
:1015A00090931D0480931C0410921B0485E090E02E
:1015B00090931A0480931904A481B5818FE094E07C
:1015C0001B969C938E931A978CE192E090930E0455
:1015D00080930D0410920C0470930B0460930A0422
:1015E0000480F581E02D80E094E097838683089560
:1015F0008CE192E090933B0480933A04109239047A
:1016000083E090E09093380480933704A481B581FF
:101610008DE294E017969C938E9316978FE192E05B
:1016200090932C0480932B0410922A0486E090E07F
:101630009093290480932804A481B5818EE194E0DD
:101640001D969C938E931C9785E292E090931D04C7
:1016500080931C0410921B0484E090E090931A0481
:1016600080931904A481B5818FE094E019969C932E
:101670008E9318978AE292E090930E0480930D0463
:1016800010920C0485E090E090930B0480930A0480
:101690000480F581E02D80E094E0938782870895AF
:1016A0008AE292E090933B0480933A0410923904CA
:1016B00085E090E09093380480933704A481B5814D
:1016C0008DE294E01B969C938E931A978CE192E0A6
:1016D00090932C0480932B0410922A0483E090E0D2
:1016E0009093290480932804A481B5818EE194E02D
:1016F00017969C938E9316978FE192E090931D041A
:1017000080931C0410921B0486E090E090931A04CE
:1017100080931904A481B5818FE094E01D969C9379
:101720008E931C9785E292E090930E0480930D04B3
:1017300010920C0484E090E090930B0480930A04D0
:101740000480F581E02D80E094E091878087089502
:1017500085E292E090933B0480933A04109239041E
:1017600084E090E09093380480933704A481B5819D
:101770008DE294E019969C938E9318978AE292E0FA
:1017800090932C0480932B0410922A0485E090E01F
:101790009093290480932804A481B5818EE194E07C
:1017A0001B969C938E931A978CE192E090931D0464
:1017B00080931C0410921B0483E090E090931A0421
:1017C00080931904A481B5818FE094E017969C93CF
:1017D0008E9316978FE192E090930E0480930D0400
:1017E00010920C0486E090E090930B0480930A041E
:1017F0000480F581E02D80E094E09587848708954A
:101800006FE272E080EB92E00E94530668EE73E0B4
:1018100080E090E00E949C07F3CFFC0161307105ED
:1018200009F468C108F4B6C06230710509F412C247
:101830006330710509F0BEC28FE192E09093E90335
:101840008093E8031092E70386E090E09093E6032C
:101850008093E503A481B5818BED93E01D969C9365
:101860008E931C9785E292E09093DA038093D903DC
:101870001092D80384E090E09093D7038093D6032E
:10188000A481B5818CEC93E019969C938E93189764
:101890008AE292E09093CB038093CA031092C9032B
:1018A00085E090E09093C8038093C703A481B5813D
:1018B0008DEB93E01B969C938E931A978CE192E0AC
:1018C0009093BC038093BB031092BA037093B90347
:1018D0006093B803A481B5818EEA93E017969C9338
:1018E0008E9316978FE392E09093AD038093AC03B1
:1018F0001092AB038AE090E09093AA038093A9032F
:10190000A481B5818FE993E055969C938E9354976B
:101910008AE492E090939E0380939D0310929C032F
:1019200089E090E090939B0380939A03A481B58112
:1019300080E993E053969C938E93529784E592E0CE
:1019400090938F0380938E0310928D0388E090E034
:1019500090938C0380938B03A481B58181E893E0FD
:1019600051969C938E93509786E392E090938003D8
:1019700080937F0310927E0387E090E090937D0335
:1019800080937C030480F581E02D82E793E09787C4
:10199000868708958CE192E09093E9038093E803B1
:1019A0001092E70383E090E09093E6038093E503D1
:1019B000A481B5818BED93E017969C938E93169737
:1019C0008FE192E09093DA038093D9031092D803C9
:1019D00086E090E09093D7038093D603A481B581ED
:1019E0008CEC93E01D969C938E931C9785E292E07D
:1019F0009093CB038093CA031092C90384E090E0D4
:101A00009093C8038093C703A481B5818DEB93E0C5
:101A100019969C938E9318978AE292E09093BC0358
:101A20008093BB031092BA0385E090E09093B903D2
:101A30008093B803A481B5818EEA93E01B969C93B2
:101A40008E931A9786E392E09093AD038093AC0354
:101A50001092AB0387E090E09093AA038093A903D0
:101A6000A481B5818FE993E01F969C938E931E9776
:101A70008FE392E090939E0380939D0310929C03CA
:101A80008AE090E090939B0380939A03A481B581B0
:101A900080E993E055969C938E9354978AE492E064
:101AA00090938F0380938E0310928D0389E090E0D2
:101AB00090938C0380938B03A481B58181E893E09C
:101AC00053969C938E93529784E592E09093800373
:101AD00080937F0310927E0388E090E090937D03D3
:101AE00080937C030480F581E02D82E793E0918B65
:101AF000808B08958AE292E09093E9038093E80353
:101B00001092E70385E090E09093E6038093E5036D
:101B1000A481B5818BED93E01B969C938E931A97CD
:101B20008CE192E09093DA038093D9031092D8036A
:101B300083E090E09093D7038093D603A481B5818E
:101B40008CEC93E017969C938E9316978FE192E01E
:101B50009093CB038093CA031092C90386E090E070
:101B60009093C8038093C703A481B5818DEB93E064
:101B70001D969C938E931C9785E292E09093BC03F4
:101B80008093BB031092BA0384E090E09093B90372
:101B90008093B803A481B5818EEA93E019969C9353
:101BA0008E93189784E592E09093AD038093AC03F5
:101BB0001092AB0388E090E09093AA038093A9036E
:101BC000A481B5818FE993E051969C938E935097B1
:101BD00086E392E090939E0380939D0310929C0372
:101BE00087E090E090939B0380939A03A481B58152
:101BF00080E993E01F969C938E931E978FE392E06B
:101C000090938F0380938E0310928D038AE090E06F
:101C100090938C0380938B03A481B58181E893E03A
:101C200055969C938E9354978AE492E09093800308
:101C300080937F0310927E0389E090E090937D0370
:101C400080937C030480F581E02D82E793E0938B01
:101C5000828B089585E292E09093E9038093E803F4
:101C60001092E70384E090E09093E6038093E5030D
:101C7000A481B5818BED93E019969C938E93189770
:101C80008AE292E09093DA038093D9031092D8030A
:101C900085E090E09093D7038093D603A481B5812B
:101CA0008CEC93E01B969C938E931A978CE192E0B8
:101CB0009093CB038093CA031092C90383E090E012
:101CC0009093C8038093C703A481B5818DEB93E003
:101CD00017969C938E9316978FE192E09093BC0396
:101CE0008093BB031092BA0386E090E09093B9030F
:101CF0008093B803A481B5818EEA93E01D969C93EE
:101D00008E931C978AE492E09093AD038093AC038A
:101D10001092AB0389E090E09093AA038093A9030B
:101D2000A481B5818FE993E053969C938E9352974B
:101D300084E592E090939E0380939D0310929C0310
:101D400088E090E090939B0380939A03A481B581EF
:101D500080E993E051969C938E93509786E392E0AE
:101D600090938F0380938E0310928D0387E090E011
:101D700090938C0380938B03A481B58181E893E0D9
:101D80001F969C938E931E978FE392E0909380030F
:101D900080937F0310927E038AE090E090937D030E
:101DA00080937C030480F581E02D82E793E0958B9E
:101DB000848B08956FE272E080EB92E00E945306FC
:101DC00068EE73E080E090E00E949C07F3CFCF9232
:101DD000DF92EF92FF920F931F93CF93DF93EC016B
:101DE0000E94B80988E792E099838883AC81BD811D
:101DF0008D919C911197ECE3F4E09183808312968E
:101E00008D919C9113979383828314968D919C91CD
:101E1000159795838483FD83EC8387E090E09F830F
:101E20008E8360E070E0CE010E94930AC0901A0198
:101E3000D0901B01E0901C01F0901D010091160153
:101E400010911701209118013091190140916E03F2
:101E500050916F036091700370917103CE010E94E5
:101E60002F09DF91CF911F910F91FF90EF90DF909D
:101E7000CF900895CF92DF92EF92FF920F931F932E
:101E8000CF93DF93EC010E94B8098EEA92E0998328
:101E90008883AC81BD818D919C911197EAEEF3E02E
:101EA0009183808312968D919C9113979383828363
:101EB00014968D919C91159795838483FD83EC8373
:101EC0008BE090E09F838E8360E070E0CE010E9403
:101ED0000D0CC0901A01D0901B01E0901C01F090F5
:101EE0001D010091160110911701209118013091E8
:101EF000190140916E0350916F03609170037091CE
:101F00007103CE010E942F09DF91CF911F910F9194
:101F1000FF90EF90DF90CF900895E0EBF2E0138216
:101F2000128288EE93E0A0E0B0E084839583A683DC
:101F3000B78389E291E0918380838FEF9FEF95874C
:101F4000848787E393E00E94B8098FE293E00E94C0
:101F5000E70E87E293E00C943A0F789484B58260A0
:101F600084BD84B5816084BD85B5826085BD85B53D
:101F7000816085BD80916E00816080936E001092BB
:101F80008100809181008260809381008091810036
:101F900081608093810080918000816080938000C7
:101FA0008091910082608093910080919100816086
:101FB0008093910080919000816080939000809147
:101FC000C10084608093C1008091C10082608093D1
:101FD000C1008091C10081608093C1008091C300E5
:101FE00081608093C3008091C00082608093C000B4
:101FF0008091C20081608093C20080917A008460E9
:1020000080937A0080917A00826080937A00809138
:102010007A00816080937A0080917A008068809352
:102020007A00109226031092100310920F038091F1
:10203000D70081608093D70080EA8093D80089B56B
:10204000806189BD89B5826089BD09B400FEFDCF7C
:1020500061E070E080E090E00E949C078091D800F1
:102060008F7C80618093D8008091E000807F809396
:10207000E0008091E1008E7E8093E1008DE080930E
:10208000E200559A209A8FEF9FEF9093BD028093C4
:10209000BC0268E873E180E090E00E949C076AE37C
:1020A00071E080EB92E00E94530681E193E00E9490
:1020B000B608FC01C080D180E280F3800091160157
:1020C00010911701209118013091190140916E0370
:1020D00050916F03609170037091710387E293E0F8
:1020E0000E942F0963E070E087E293E00E940D0CEC
:1020F00068E873E180E090E00E949C0762E571E08F
:1021000080EB92E00E94530687E293E00E946F0A00
:10211000C0E0D0E081E193E00E94B608FC0142817A
:10212000538160817181248187E293E00E94EE09EE
:10213000BC0187E293E00E94260A81E193E00E94BD
:10214000D00867E571E080EB92E00E94530668EEEC
:1021500073E080E090E00E949C072097D9F20E94F3
:102160000000D8CFFC017383628308958F929F9201
:10217000AF92BF92CF92DF92EF92FF920F931F9395
:10218000CF93DF93FC015B01D801490187858695D8
:1021900090E0E601C81BD90BC417D50708F4EA0183
:1021A000D383C283E701C81BD90BCA15DB0508F42A
:1021B000EB01D583C483AC014C0D5D1DA417B5079D
:1021C00008F4A801578346838E0D9F1D8816990633
:1021D00008F4C90191878087DF91CF911F910F91FA
:1021E000FF90EF90DF90CF90BF90AF909F908F9037
:1021F00008958F929F92AF92BF92CF92DF92EF920B
:10220000FF920F931F93CF93DF93FC015B01D801E3
:1022100049018785869590E0E601C81BD90BC41754
:10222000D50708F4EA01D383C283E701C81BD90BA1
:10223000CA15DB0508F4EB01D583C483AC014C0D52
:102240005D1DA417B50708F4A801578346838E0DBA
:102250009F1D8816990608F4C90191878087DF9130
:10226000CF911F910F91FF90EF90DF90CF90BF9093
:10227000AF909F908F9008950F931F93FC01C8011A
:10228000019693838283C901019695838483C80153
:10229000029697838683C9010296918780871F9152
:1022A0000F910895EEE5F3E08EE092E09183808354
:1022B00088E2878723EE31E03687258714861386E8
:1022C0001286EEE4F3E024E132E031832083878755
:1022D00088EE91E09687858781E0848781E090E0B1
:1022E00093878287EFE3F3E08AE192E09183808332
:1022F0008CEF91E096878587148682E090E0938743
:1023000082870895AF92BF92CF92DF92EF92FF92B1
:102310000F931F93FC01D8015901C6018A5F9109EF
:102320008417950708F4CA019383828375836483B5
:102330008AEFC80ED11CAC15BD0508F46801D78220
:10234000C682CB01C296A816B90608F4C9019187C6
:1023500080871F910F91FF90EF90DF90CF90BF90FB
:10236000AF900895CF92DF92EF92FF920F931F9359
:10237000CF93DF93FC01E801D90153834283C70166
:102380008A5F91098617970708F4CB0195838483A8
:102390004E5C5F4FC417D50708F4A80157834683E6
:1023A000C70186509F4FA817B90708F4C901918744
:1023B0008087DF91CF911F910F91FF90EF90DF9079
:1023C000CF900895CF92DF92EF92FF920F931F93D9
:1023D000CF93DF93FC01EB01D801C6018A5F91091D
:1023E0008417950708F4CA0193838283C901C297B1
:1023F0008C179D0708F4CB01958384838AEFC80E60
:10240000D11CAC15BD0508F46801D782C68231879E
:102410002087DF91CF911F910F91FF90EF90DF9078
:10242000CF900895CF92DF92EF92FF920F931F9378
:10243000CF93DF93FC01EB01D901C801C297841748
:10244000950708F4CA0193838283C7018A5F9109C3
:102450008C179D0708F4CB0195838483178306832B
:10246000C70186509F4FA817B90708F4C901918783
:102470008087DF91CF911F910F91FF90EF90DF90B8
:10248000CF900895AF92BF92CF92DF92EF92FF92DA
:102490000F931F93FC01D8015901C6018A5F91096E
:1024A0008417950708F4CA01938382837583648334
:1024B0008AEFC80ED11CAC15BD0508F46801D7829F
:1024C000C682CB018C509E4FA816B90608F4C901EC
:1024D000918780871F910F91FF90EF90DF90CF90B1
:1024E000BF90AF900895CF92DF92EF92FF920F933B
:1024F0001F93CF93DF93FC01E801D90153834283FB
:10250000C7018A5F91098617970708F4CB01958365
:1025100084834C505E4FC417D50708F4A801578335
:102520004683C70186509F4FA817B90708F4C90111
:1025300091878087DF91CF911F910F91FF90EF904E
:10254000DF90CF900895CF92DF92EF92FF920F939A
:102550001F93CF93DF93FC01EB01D801C6018A5F83
:1025600091098417950708F4CA0193838283C901EE
:10257000845F91408C179D0708F4CB019583848379
:102580008AEFC80ED11CAC15BD0508F46801D782CE
:10259000C68231872087DF91CF911F910F91FF90E5
:1025A000EF90DF90CF900895CF92DF92EF92FF925D
:1025B0000F931F93CF93DF93FC01EB01D901C80167
:1025C000845F91408417950708F4CA01938382833E
:1025D000C7018A5F91098C179D0708F4CB01958389
:1025E000848317830683C70186509F4FA817B907B6
:1025F00008F4C90191878087DF91CF911F910F91D6
:10260000FF90EF90DF90CF9008950F931F93FC0100
:10261000D9015383428375836483CA018C509E4FD2
:102620000817190708F4C80197838683CB018C50DB
:102630009E4FA817B90708F4C901918780871F9199
:102640000F9108950F931F93FC01D8015383428388
:10265000C901845F91408617970708F4CB019583E1
:1026600084834C505E4FA417B50708F4A801578324
:102670004683318720871F910F9108950F931F93F1
:10268000CF93DF93FC01EB01C801845F9140841775
:10269000950708F4CA0193838283C901845F91403E
:1026A0008C179D0708F4CB019583848317830683D9
:1026B00031872087DF91CF911F910F9108950F935C
:1026C0001F93CF93DF93FC01EB01C801845F91401E
:1026D0008417950708F4CA01938382837583648302
:1026E00017830683CB018C509E4FC817D90708F477
:1026F000CB0191878087DF91CF911F910F91089532
:1027000080E692E090932E0480932D0486E692E07A
:1027100090931F0480931E048CE692E09093100423
:1027200080930F0482E792E0909301048093000469
:102730008EE792E09093DC038093DB0384E892E0E1
:102740009093CD038093CC038AE892E09093BE03EC
:102750008093BD0380E992E09093AF038093AE0332
:1027600086E992E09093A00380939F038CE992E026
:10277000909391038093900382EA92E09093820376
:102780008093810388EA92E09093730380937203AD
:102790000895EE0FFF1F0590F491E02D0994A1E23A
:1027A0001A2EAA1BBB1BFD010DC0AA1FBB1FEE1FCB
:1027B000FF1FA217B307E407F50720F0A21BB30B16
:1027C000E40BF50B661F771F881F991F1A9469F792
:1027D00060957095809590959B01AC01BD01CF01EE
:1027E000089581E090E0F8940C94F613F894FFCFEC
:1027F000FFFFFFFF00E10000000000005E034E034A
:102800003F0301040104FF03FF03FF01FF0100C1B7
:102810008081000000000000005C02D6077D02728B
:1028200002C30281029F020D0A007761696E74691A
:102830006E672063616C6962617274696F6E2E2EBF
:102840002E00646F6E65002E2E2E2E2E2E2E2E2E16
:102850002E2E2E2E2E2E2E2E2E2E2E2E2E2E2E2E98
:102860002E2E0A0A0A005374617475733A20287870
:102870002C792C627574746F6E5F707265737365FA
:1028800064292028002C2000290A004552524F526A
:1028900045200A002920002A2A2A2A2A2A2A2A2A06
:1028A0002A2A2A2A2A2A2A2A2A2A2A2A2A2A2A2A88
:1028B0002A2A2A2A2A2A2A2A2A2A004E616D653AB9
:1028C00009004D696E3A09004D61783A09004944A2
:1028D0003A0900526573740052657374204275742E
:1028E000746F6E205072657373656400556E6B6E05
:1028F0006F776E0000000000B21000000000B610FC
:1029000000000000F910000000003C11557000525A
:102910006967687400446F776E004C6566740045A3
:1029200052524F52450055702072696768740044D6
:102930006F776E20726967687400446F776E206CE1
:10294000656674005570206C6566740000000000B8
:10295000821100000000B21100000000E21100002E
:102960000000121200000000930A00000000421252
:1029700000000000731200000000A312000000001D
:10298000D412000000000513000000002213000014
:1029900000003E13000000005F13000000000D0C5B
:00000001FF
