:100000000C9457010C947F010C947F010C947F0198
:100010000C947F010C947F010C947F010C947F0160
:100020000C947F010C947F010C9478070C94EA07E0
:100030000C947F010C947F010C947F010C947F0140
:100040000C947F010C947F010C947F010C947F0130
:100050000C947F010C947F010C947F010C942E076B
:100060000C947F010C947F010C947F010C947F0110
:100070000C947F010C947F010C947F010C947F0100
:100080000C947F010C947F010C947F010C947F01F0
:100090000C947F010C947F010C947F010C947F01E0
:1000A0000C947F010C947F010C947F01F606F906F5
:1000B000E806EC06F0061A071A071A07FD060107FC
:1000C00005070B070F071A0715070000000023009C
:1000D000260029002C002F000000000200090F005C
:1000E00000030401000C00000000000000000000FC
:1000F00000000000000000080B00020202000009DE
:100100000400000102020000052400100105240182
:1001100001010424020605240600010705810310DD
:10012000004009040100020A000000070502024025
:1001300000000705830240000004030904120100C7
:1001400002EF020140412336800001010203014118
:10015000726475696E6F204C4C430041726475691E
:100160006E6F204C656F6E6172646F00000000005E
:10017000000000002A2B2800000000000000000002
:100180000000000000000000000000002C9EB4A051
:10019000A1A2A434A6A7A5AE362D3738271E1F204E
:1001A000212223242526B333B62EB7B89F84858613
:1001B0008788898A8B8C8D8E8F9091929394959657
:1001C0009798999A9B9C9D2F3130A3AD35040506D5
:1001D0000708090A0B0C0D0E0F1011121314151637
:1001E0001718191A1B1C1DAFB1B0B5000000000094
:1001F000250028002B002E00310000000000240004
:1002000027002A002D003000040404040403040520
:1002100002020202040302020202060606060606A3
:100220000404020202040404080201104080401089
:10023000204080408008020401804020100201100C
:1002400080102040402005010902A1010901A10000
:10025000850105091901290315002501950375017B
:1002600081029501750581030501093009310938BD
:100270001581257F750895038106C0C00501090613
:10028000A1018502050719E029E71500250175017F
:10029000950881029501750881039506750815007A
:1002A00025730507190029738100C000290A11244C
:1002B0001FBECFEFDAE0DEBFCDBF11E0A0E0B1E0BE
:1002C000EEEBF7E102C005900D92AE33B107D9F71E
:1002D00021E0AEE3B1E001C01D92AF3EB207E1F70D
:1002E00011E0C7E5D1E004C02197FE010E94D20BC6
:1002F000C635D107C9F70E94C20A0C94DD0B0C94D5
:100300000000CF93DF9390E0FC01E95DFD4F249165
:10031000FC01E85FFD4F84918823C1F090E0880FD5
:10032000991FFC01E650FE4FC591D491FC01E451A8
:10033000FE4FA591B4919FB7F8948881E22FE09584
:100340008E2388838C91E823EC939FBFDF91CF911C
:10035000089520917501211103C08FEF9FEF08953B
:100360005FB7F89422E02093E9002091F20030E09A
:100370001216130614F421E030E0422FFC0184E64B
:10038000415038F02898809374019091F100919336
:10039000F7CF2115310521F08091F200882319F063
:1003A0005FBFC90108958BE68093E800F9CFDC01B7
:1003B000FB0112968C91129790E02481358182176F
:1003C0009307D1F491818081813A31F481E09130B9
:1003D00091F0933089F411C0813271F49B3021F493
:1003E00082811F968C9305C09A3031F48281509699
:1003F0008C9381E00895089580E00895DC01FB016D
:1004000088E4808389E4818384E482831D969C91BF
:100410001D979F709F5B93831D968D919C911E9756
:1004200024E0969587952A95E1F78F708F5B8483FA
:1004300085E00895CF92DF92EF92FF920F931F9382
:10044000CF93DF936C01EB017B01E40EF51E00E01E
:1004500010E0CE15DF0581F069916D30D1F3D60142
:10046000ED91FC910190F081E02DC6010995892B59
:1004700019F00F5F1F4FEDCFC801DF91CF911F9192
:100480000F91FF90EF90DF90CF90089580915301EE
:1004900081110DC082E080934F0184E08093500170
:1004A000109252011092510181E0809353018FE428
:1004B00091E00895CF93DF9380916C0181116AC020
:1004C00081E080935F018093600125E631E0309305
:1004D000620120936101109264011092630127E18F
:1004E00031E030935C0120935B0110926701109220
:1004F0006601109269011092680180936A018093ED
:100500006B0181EC809365010E944602FC01218110
:1005100080915F0190E0820F911D0897C4F5A28140
:10052000B381109729F48BE591E0938382830EC009
:1005300018968D919C911997009711F0DC01F8CFD6
:100540008BE591E019969C938E9318978081809308
:100550005D01818180935E01908180916001890FAE
:10056000808380E090915F01891788F49181A92FA1
:10057000B0E0A45FBE4FC0916101D0916201C80F8D
:10058000D11D28812C939F5F91838F5FEBCF81E0FA
:1005900080936C018BE591E0DF91CF910895FC0190
:1005A00082818F5BFB01808381E008953FB7F894DF
:1005B00080914B0190914C01A0914D01B0914E0161
:1005C00026B5A89B05C02F3F19F00196A11DB11DAE
:1005D0003FBFBA2FA92F982F8827820F911DA11DE9
:1005E000B11DBC01CD0142E0660F771F881F991F26
:1005F0004A95D1F70895CF92DF92EF92FF920E9431
:10060000D6026B017C010E94D602DC01CB018C1961
:100610009D09AE09BF09883E9340A105B10598F335
:10062000FF90EF90DF90CF9008954091400150915E
:10063000410120913E0130913F0142175307B4F42C
:100640009091E8009570E1F39091E80092FD19C057
:100650008093F100809140019091410101968F7348
:100660009927892B19F48EEF8093E800809140013F
:10067000909141010196909341018093400181E066
:10068000089580E00895DF92EF92FF920F931F93F9
:10069000CF93DF93D82EF92EE42E062F10E0C80159
:1006A0000196880F0E94150383E00E941503CD2D4B
:1006B000DF2D0C0F1D1FC017D10789F0E7FE03C007
:1006C000FE01849101C088810E941503F82E80E00C
:1006D0000E9415038F2121968111EDCF01C081E089
:1006E000DF91CF911F910F91FF90EF90DF900895D0
:1006F000DF92EF92FF920F931F93CF93DF93D82E49
:100700008A017B01E40EF51EEB01CE15DF0571F0C9
:10071000D7FE03C0FE01849101C088810E941503A9
:1007200021968111F2CF8FEF9FEF01C0C801DF91B9
:10073000CF911F910F91FF90EF90DF900895EF926E
:10074000FF920F931F93CF93DF93FB0120812138FA
:1007500051F52381223239F5DC0112962C9130E0DB
:100760004481558142175307F1F4EC010B851C8538
:10077000E12CF12C0115110591F0F801448155810E
:100780006281738180E80E9478038F3FFFEF9F07AB
:1007900069F0E80EF91ED8010D911C91EBCF81E0B4
:1007A0008F87C70105C080E090E002C08FEF9FEF08
:1007B000DF91CF911F910F91FF90EF900895CF930C
:1007C000DF93CDB7DEB769970FB6F894DEBF0FBEE3
:1007D000CDBFFC01DB018C918F5F8C93BE016F5FFD
:1007E0007F4F89E1DB011D928A95E9F729E0298392
:1007F00084E08A8391E09D8383E08E832A8721E2CF
:100800002B879C879D879F8722E2288B27E02B8B55
:1008100025E02C8B8E8B20E430E0388F2F8B998F46
:1008200082818B8395858685998B8A8B838180686D
:100830008D8B49E150E080E00E94780369960FB605
:10084000F894DEBF0FBECDBFDF91CF9108950F9317
:100850001F93CF93DF931F92CDB7DEB782E08983DA
:1008600042E450E067EF70E080E80E9478030E9465
:100870004602DC0112960D911C911397011511058A
:1008800089F0D801ED91FC910280F381E02DBE0149
:100890006F5F7F4FC801099597FD04C0F80100857F
:1008A0001185ECCF89810F90DF91CF911F910F912E
:1008B00008952FB7F89487708093E9009091E8002D
:1008C000892F807295FF04C09091F20080E4891B0B
:1008D0002FBF08957F928F929F92AF92BF92CF9237
:1008E000DF92EF92FF920F931F93CF93DF93C82E67
:1008F0008B017A0180917501811103C08FEF9FEF09
:1009000070C08091440180FF05C08091E00082604A
:100910008093E000CE2DDF2DD12C8AEFB82E8C2DC8
:100920008770982E8C2D8072882E8C2D8074782E56
:100930009AE3A92E209719F4DD2009F44DC08C2DDF
:100940000E945904811106C0BA94BB20B9F20E94DA
:10095000FB02F0CF282F30E0C217D3070CF48C2F06
:100960009FB7F8949092E9002091E80025FF32C0EB
:10097000282F30E0C21BD30B882029F08150A0F033
:100980001092F100FBCFF801C7FE0AC0815050F071
:1009900044914093F1003196F9CF41914093F10099
:1009A0008150D8F7020F131FDD2019F0A092E80044
:1009B0000AC08091E80085FD08C0A092E800DD240F
:1009C000D394209739F0D12C05C0209719F47110D9
:1009D000A092E8009FBFAECF5D9884E6809343016C
:1009E000C701DF91CF911F910F91FF90EF90DF90A2
:1009F000CF90BF90AF909F908F907F900895AF92CF
:100A0000BF92CF92DF92EF92FF920F931F93CF93FB
:100A1000DF931F92CDB7DEB77C0169836A0159016C
:100A200041E050E0BE016F5F7F4FFC0183810E9477
:100A30006A048C0197FD0BC0F7018381A501B60103
:100A400080640E946A0497FD02C0800F911F0F907E
:100A5000DF91CF911F910F91FF90EF90DF90CF909A
:100A6000BF90AF900895CF93DF9300D000D0CDB763
:100A7000DEB79091840199838A836B831C820E94E4
:100A80005A0224E030E0AE014F5F5F4F61E00E9408
:100A9000FF040F900F900F900F90DF91CF9108956A
:100AA000EF92FF921F93CF93DF93EC01162F6838DC
:100AB00018F0E8E7E60F23C0E62FF0E067FF0DC06F
:100AC000E058F10981E090E001C0880FEA95EAF76B
:100AD0009C81892B8C83E0E012C0E459FE4FE491A5
:100AE000E11107C081E090E09B838A83E12CF12C27
:100AF00042C0E7FF04C08C8182608C83EF778E81D7
:100B00008E1739F18F81E81721F18885E81709F1EF
:100B10008985E817F1F08A85E817D9F08B85E81701
:100B2000C1F0DE01169680E090E02D91211106C003
:100B3000DE01A80FB91F1696EC930BC00196863004
:100B4000910599F781E090E09B838A83E12CF12C59
:100B50000DC00E945A0228E030E0AE014C5F5F4FAA
:100B600062E00E94FF04EE24E394F12C183818F0A0
:100B7000E8E7E10F1DC0E12FF0E017FF0EC0E058DD
:100B8000F10981E090E001C0880FEA95EAF78095CD
:100B90009C8189238C83E0E00BC0E459FE4FE491F3
:100BA000EE2301F1E7FF04C08C818D7F8C83EF770A
:100BB000DE0186E0EE2341F016969C911697E9132C
:100BC00003C016961C921697815011968111F2CF90
:100BD0000E945A02AE014C5F5F4F28E030E062E0B5
:100BE0000E94FF04C701DF91CF911F91FF90EF900A
:100BF0000895615030F02091F100FC0120830196AE
:100C0000F8CF289884E6809374010895CF92DF92FC
:100C1000EF92FF920F931F93CF93DF936C017A01B2
:100C20008B01C0E0D0E0CE15DF0581F0D8016D91D9
:100C30008D01D601ED91FC910190F081E02DC6016E
:100C40000995892B11F02196EECF7E01C701DF9126
:100C5000CF911F910F91FF90EF90DF90CF9008956B
:100C6000CF93DF93EC0180910B01882331F083E077
:100C70000E946A041816190634F081E090E09B8304
:100C80008A8380E090E0DF91CF910895CF93DF9346
:100C90001F92CDB7DEB76983DC01ED91FC91028034
:100CA000F381E02D41E050E0BE016F5F7F4F099579
:100CB0000F90DF91CF91089583E08093E9008091B8
:100CC000F200882319F08AE38093E800089583E016
:100CD0000E94590490E00895CF93DF931F92CDB7FF
:100CE000DEB7FC018485958597FD05C02FEF3FEFAA
:100CF000358724870BC0CE0101960E94A901019778
:100D000019F4898190E002C08FEF9FEF0F90DF917F
:100D1000CF9108950F931F93CF93DF931F92CDB779
:100D2000DEB78C01FC018485958597FF0EC0CE014E
:100D300001960E94A901019719F4898190E002C0EF
:100D40008FEF9FEFF80195878487F801848595855B
:100D50000F90DF91CF911F910F910895FC01848531
:100D6000958597FD0BC09FB7F89482E08093E900CA
:100D70008091F2009FBF90E0019608959FB7F8948C
:100D800082E08093E9008091F2009FBF90E0089597
:100D9000089580E090E0089590E0FC01E852FF4F54
:100DA0004491FC01E95DFD4F2491FC01E85FFD4F9A
:100DB0008491882309F44DC04423E1F150E0FA0105
:100DC0003197EF30F105B0F5EA5AFF4F0C94D20B92
:100DD000909180009F7707C0909180009F7D03C015
:100DE00090918000977F9093800024C094B59F7766
:100DF00002C094B59F7D94BD1DC0909190009F77D7
:100E000007C0909190009F7D03C090919000977FC4
:100E1000909390000FC09091C0009F7703C0909175
:100E2000C0009F7D9093C00005C09091C200977F45
:100E30009093C200E82FF0E0EE0FFF1FE653FF4F44
:100E4000A591B491EC91E22381E090E021F480E05F
:100E5000089580E090E008950E94D80B1F920F92B1
:100E60000FB60F9211242F933F938F939F93AF93BD
:100E7000BF938091470190914801A0914901B091A1
:100E80004A013091460123E0230F2D3720F40196CB
:100E9000A11DB11D05C026E8230F0296A11DB11D9D
:100EA000209346018093470190934801A093490104
:100EB000B0934A0180914B0190914C01A0914D015A
:100EC000B0914E010196A11DB11D80934B019093ED
:100ED0004C01A0934D01B0934E01BF91AF919F91F2
:100EE0008F913F912F910F900FBE0F901F901895EB
:100EF0001F920F920FB60F9211248F939F938091A0
:100F0000E1009091E100937F9093E10083FF0FC097
:100F10001092E90091E09093EB001092EC0092E3C4
:100F20009093ED001092750198E09093F00082FF8D
:100F300020C093E09093E9009091F200992319F07A
:100F40009AE39093E80090914301992339F09091AE
:100F50004301915090934301992389F19091740139
:100F6000992339F0909174019150909374019923D1
:100F700041F184FF10C08091E2008E7E81608093F9
:100F8000E2008091E1008F7E8093E1008091440136
:100F90008E7E806111C080FF16C08091E2008E7E3F
:100FA00080618093E2008091E1008E7E8093E10079
:100FB000809144018E7E81608093440104C05D9ADB
:100FC000CDCF289AD6CF9F918F910F900FBE0F90C3
:100FD0001F9018951F920F920FB60F921124CF9267
:100FE000DF92EF92FF920F931F932F933F934F93B4
:100FF0005F936F937F938F939F93AF93BF93EF9381
:10100000FF93CF93DF93CDB7DEB76C97DEBFCDBF35
:101010001092E9008091E80083FFFBC168E0CE01F7
:1010200045960E94F90582EF8093E8008D8987FF3D
:1010300005C09091E80090FFFCCF03C09EEF909315
:10104000E800982F907609F0C6C09E894F89588D88
:101050002F89F88C91110CC0803829F480914501BA
:101060008093F10002C01092F1001092F10045C18E
:10107000913051F4811141C14130510509F03DC118
:10108000809145018D7F0BC0933061F4811135C192
:101090004130510509F031C1809145018260809352
:1010A00045012BC1953049F48091E80080FFFCCFC9
:1010B000822F80688093E30020C1963009F05EC0E3
:1010C0000B8D1C8D22E01092E900109241011092CC
:1010D0004001F21232C010923F0110923E010E9474
:1010E000270499E0BE016F5F7F4FDB01E92F1D925E
:1010F000EA95E9F79983FA8291E09E8390EA9887CE
:101100009AEF99872091400130914101275F3F4F2D
:101110003C832B838D831092E90010924101109241
:10112000400110933F0100933E0149E050E080E010
:101130000E9478030E942704E0C010933F010093AF
:101140003E010E944602DC0112960D911C911397FC
:101150000115110509F4BBC0D801ED91FC91048083
:10116000F581E02DBE016B5E7F4FC80109950097A8
:1011700009F0C7C0F80100851185EACF973009F45E
:1011800045C1983021F481E08093F100B6C09930D8
:1011900009F0B3C0837009F039C1EDE0F1E081E0FE
:1011A00031E096E32081211109C08EE78093EA00A7
:1011B0001092EA008F89809375019FC08093E900A7
:1011C0003093EB0021912093EC009093ED008F5F22
:1011D000873041F7EACF8B8D9C8D1092E9001092F9
:1011E00041011092400190933F0180933E01898D0F
:1011F000811153C08E899D89913A49F4813209F059
:1012000005C147E050E064E071E080E0BBC091328E
:1012100009F0FCC0833269F48F89988DA0E0B0E0BA
:101220008093000190930101A0930201B093030108
:1012300064C0803269F48091E80082FFFCCF67E0EF
:1012400084E091E00E94F9058BEF8093E80055C09F
:10125000823209F052C08F8980930B01EEEFFFE7D5
:10126000859194918B3F9C4D19F0E0E0F8E002C02D
:10127000EEEFFAE08091040190910501A091060142
:10128000B0910701803B9440A105B10509F09EC0D3
:1012900080910B0180FF79C099C00E944602FC0139
:1012A000028113810115110509F4B0C0D801ED9137
:1012B000FC910190F081E02DBE016B5E7F4FC80173
:1012C000099581111AC0F80100851185EBCFF1E075
:1012D000FF1609F44EC0F3E0FF1298C08F898823EF
:1012E00009F44AC0823089F440E860E18BE591E07E
:1012F0000E944303882309F489C08EEF8093E8009D
:1013000088C018161906CCF381C0813029F440E852
:101310006BE08FE491E0ECCF833009F077C00E945E
:101320004602DC011296ED90FC9013978E010F5F40
:101330001F4F6801E114F10479F0D701ED91FC91A0
:101340000680F781E02DB801C7010995080F111D2E
:10135000F701E084F184EECFD8011C92F6010190F0
:101360000020E9F73197BF016C197D0940E0C60103
:10137000BFCF6DE371E002C069E371E0FB0144910E
:1013800050E080E80E947803B8CFEE3F2AE0F207F1
:1013900051F0808191818737A7E79A0721F09093D8
:1013A000FF0A8093FE0A87E797E791838083809105
:1013B0006000809342019BE088E10FB6F894A89505
:1013C000809360000FBE9093600097CF80819181E1
:1013D0008737974709F091CFA89580916000886181
:1013E000809360008091420180936000EE3FBAE0FC
:1013F000FB0739F08091FE0A9091FF0A9183808368
:101400007CCF1092FF0A1092FE0A77CF81E2809380
:10141000EB006C960FB6F894DEBF0FBECDBFDF9128
:10142000CF91FF91EF91BF91AF919F918F917F915C
:101430006F915F914F913F912F911F910F91FF906D
:10144000EF90DF90CF900F900FBE0F901F901895E8
:1014500008951092840180917C01811113C0109233
:1014600077011092760186E492E09093790180935F
:10147000780186E390E090937B0180937A0181E08C
:1014800080937C010E945A02FC01A385B4851097C9
:1014900029F486E791E0948783870BC08D919C9116
:1014A0001197009711F0DC01F9CF86E791E08D9359
:1014B0009C932585368580917A0190917B01820FDE
:1014C000931F96878587109296011092950183E26B
:1014D00091E0909394018093930180918B0181110D
:1014E00013C010928601109285018CE792E09093D0
:1014F0008801809387018FE290E090938A01809326
:10150000890181E080938B010E945A02FC01A3852E
:10151000B485109729F485E891E0948783870BC000
:101520008D919C911197009711F0DC01F9CF85E81E
:1015300091E08D939C9325853685809189019091CA
:101540008A01820F931F968785871092A2011092BD
:10155000A10188EE93E0A0E0B0E08093A301909316
:10156000A401A093A501B093A6018FE291E090930E
:10157000A00180939F018FEF9FEF9093AC01809328
:10158000AB010895789484B5826084BD84B5816090
:1015900084BD85B5826085BD85B5816085BD80913E
:1015A0006E00816080936E001092810080918100B6
:1015B00082608093810080918100816080938100AE
:1015C0008091800081608093800080919100826092
:1015D000809391008091910081608093910080912F
:1015E00090008160809390008091C100846080931E
:1015F000C1008091C10082608093C1008091C100D0
:1016000081608093C1008091C30081608093C3009A
:101610008091C00082608093C0008091C200816090
:101620008093C20080917A00846080937A008091D8
:101630007A00826080937A0080917A008160809342
:101640007A0080917A00806880937A001092750108
:1016500010924501109244018091D70081608093DF
:10166000D70080EA8093D80089B5806189BD89B5AB
:10167000826089BD09B400FEFDCF0E94FB0280910B
:10168000D8008F7C80618093D8008091E000807FBB
:101690008093E0008091E1008E7E8093E1008DE0F8
:1016A0008093E200559A209A82E00E94810183E0B3
:1016B0000E94810184E00E94810185E00E948101F5
:1016C0008CE00E9481018FEF9FEF9093AC0180939B
:1016D000AB010E94280AC0E0D0E011E08FE991E060
:1016E0000E94AE06181619062CF58FE991E00E94AB
:1016F0006C068D3699F03CF4843659F08C36D1F472
:1017000060E088ED15C0823731F0853799F468EDD7
:101710000EC068E20CC060E088E20AC01093840149
:1017200060E080E00E9433051092840160E080E078
:101730000E94330582E00E94CC06019729F465E7F8
:1017400083E991E00E94500583E00E94CC06019756
:1017500029F464E683E991E00E94500584E00E9448
:10176000CC06019729F46CE683E991E00E945005CC
:1017700085E00E94CC06019729F462E783E991E0B5
:101780000E9450058CE00E94CC06019729F46DE67A
:1017900083E991E00E945005209709F49FCF0E94B1
:1017A00000009CCFEE0FFF1F0590F491E02D0994EF
:0E17B00081E090E0F8940C94DD0BF894FFCFEC
:1017BE00FFFFFFFF00E100000000000000C180817C
:1017CE0000000000000000D701DF039F03FE0100B0
:1017DE0000000050051A02C906C8060000000046A7
:0E17EE0006300667065C06AE066C068A06002C
:00000001FF
